{"abi":[{"type":"constructor","inputs":[],"stateMutability":"nonpayable"},{"type":"function","name":"LOCATION_SNAP","inputs":[],"outputs":[{"name":"","type":"int32","internalType":"int32"}],"stateMutability":"view"},{"type":"function","name":"MAX_DAILY_SUBMISSIONS","inputs":[],"outputs":[{"name":"","type":"uint8","internalType":"uint8"}],"stateMutability":"view"},{"type":"function","name":"SILENT_CONSENSUS_SECONDS","inputs":[],"outputs":[{"name":"","type":"uint32","internalType":"uint32"}],"stateMutability":"view"},{"type":"function","name":"UPGRADE_INTERFACE_VERSION","inputs":[],"outputs":[{"name":"","type":"string","internalType":"string"}],"stateMutability":"view"},{"type":"function","name":"dailySubmissions","inputs":[{"name":"","type":"bytes32","internalType":"bytes32"},{"name":"","type":"uint32","internalType":"uint32"}],"outputs":[{"name":"","type":"uint8","internalType":"uint8"}],"stateMutability":"view"},{"type":"function","name":"firstMoverByLocation","inputs":[{"name":"","type":"bytes32","internalType":"bytes32"}],"outputs":[{"name":"","type":"bytes32","internalType":"bytes32"}],"stateMutability":"view"},{"type":"function","name":"getSubmission","inputs":[{"name":"hash","type":"bytes32","internalType":"bytes32"}],"outputs":[{"name":"","type":"tuple","internalType":"struct VendRegistry.Submission","components":[{"name":"ean_hash","type":"bytes32","internalType":"bytes32"},{"name":"price_cents","type":"uint64","internalType":"uint64"},{"name":"currency","type":"bytes3","internalType":"bytes3"},{"name":"lat6","type":"int32","internalType":"int32"},{"name":"lng6","type":"int32","internalType":"int32"},{"name":"geohash5","type":"string","internalType":"string"},{"name":"user_hash","type":"bytes32","internalType":"bytes32"},{"name":"timestamp","type":"uint32","internalType":"uint32"},{"name":"is_first_mover","type":"bool","internalType":"bool"},{"name":"status","type":"uint8","internalType":"uint8"},{"name":"votes_up","type":"uint32","internalType":"uint32"},{"name":"votes_down","type":"uint32","internalType":"uint32"},{"name":"auto_verify_at","type":"uint32","internalType":"uint32"}]}],"stateMutability":"view"},{"type":"function","name":"hashExists","inputs":[{"name":"","type":"bytes32","internalType":"bytes32"}],"outputs":[{"name":"","type":"bool","internalType":"bool"}],"stateMutability":"view"},{"type":"function","name":"initialize","inputs":[{"name":"initialOwner","type":"address","internalType":"address"}],"outputs":[],"stateMutability":"nonpayable"},{"type":"function","name":"isFirstMoverFor","inputs":[{"name":"ean_hash","type":"bytes32","internalType":"bytes32"},{"name":"lat6","type":"int32","internalType":"int32"},{"name":"lng6","type":"int32","internalType":"int32"}],"outputs":[{"name":"","type":"bool","internalType":"bool"}],"stateMutability":"view"},{"type":"function","name":"owner","inputs":[],"outputs":[{"name":"","type":"address","internalType":"address"}],"stateMutability":"view"},{"type":"function","name":"pause","inputs":[],"outputs":[],"stateMutability":"nonpayable"},{"type":"function","name":"paused","inputs":[],"outputs":[{"name":"","type":"bool","internalType":"bool"}],"stateMutability":"view"},{"type":"function","name":"proxiableUUID","inputs":[],"outputs":[{"name":"","type":"bytes32","internalType":"bytes32"}],"stateMutability":"view"},{"type":"function","name":"renounceOwnership","inputs":[],"outputs":[],"stateMutability":"nonpayable"},{"type":"function","name":"submissions","inputs":[{"name":"","type":"bytes32","internalType":"bytes32"}],"outputs":[{"name":"ean_hash","type":"bytes32","internalType":"bytes32"},{"name":"price_cents","type":"uint64","internalType":"uint64"},{"name":"currency","type":"bytes3","internalType":"bytes3"},{"name":"lat6","type":"int32","internalType":"int32"},{"name":"lng6","type":"int32","internalType":"int32"},{"name":"geohash5","type":"string","internalType":"string"},{"name":"user_hash","type":"bytes32","internalType":"bytes32"},{"name":"timestamp","type":"uint32","internalType":"uint32"},{"name":"is_first_mover","type":"bool","internalType":"bool"},{"name":"status","type":"uint8","internalType":"uint8"},{"name":"votes_up","type":"uint32","internalType":"uint32"},{"name":"votes_down","type":"uint32","internalType":"uint32"},{"name":"auto_verify_at","type":"uint32","internalType":"uint32"}],"stateMutability":"view"},{"type":"function","name":"submit","inputs":[{"name":"hash","type":"bytes32","internalType":"bytes32"},{"name":"ean_hash","type":"bytes32","internalType":"bytes32"},{"name":"price_cents","type":"uint64","internalType":"uint64"},{"name":"currency","type":"bytes3","internalType":"bytes3"},{"name":"lat6","type":"int32","internalType":"int32"},{"name":"lng6","type":"int32","internalType":"int32"},{"name":"geohash5","type":"string","internalType":"string"},{"name":"user_hash","type":"bytes32","internalType":"bytes32"}],"outputs":[],"stateMutability":"nonpayable"},{"type":"function","name":"totalSubmissions","inputs":[],"outputs":[{"name":"","type":"uint256","internalType":"uint256"}],"stateMutability":"view"},{"type":"function","name":"transferOwnership","inputs":[{"name":"newOwner","type":"address","internalType":"address"}],"outputs":[],"stateMutability":"nonpayable"},{"type":"function","name":"triggerSilentConsensus","inputs":[{"name":"hash","type":"bytes32","internalType":"bytes32"}],"outputs":[],"stateMutability":"nonpayable"},{"type":"function","name":"unpause","inputs":[],"outputs":[],"stateMutability":"nonpayable"},{"type":"function","name":"upgradeToAndCall","inputs":[{"name":"newImplementation","type":"address","internalType":"address"},{"name":"data","type":"bytes","internalType":"bytes"}],"outputs":[],"stateMutability":"payable"},{"type":"event","name":"DuplicateDetected","inputs":[{"name":"existing_hash","type":"bytes32","indexed":true,"internalType":"bytes32"},{"name":"new_hash","type":"bytes32","indexed":true,"internalType":"bytes32"},{"name":"user_hash","type":"bytes32","indexed":true,"internalType":"bytes32"}],"anonymous":false},{"type":"event","name":"Initialized","inputs":[{"name":"version","type":"uint64","indexed":false,"internalType":"uint64"}],"anonymous":false},{"type":"event","name":"OwnershipTransferred","inputs":[{"name":"previousOwner","type":"address","indexed":true,"internalType":"address"},{"name":"newOwner","type":"address","indexed":true,"internalType":"address"}],"anonymous":false},{"type":"event","name":"Paused","inputs":[{"name":"account","type":"address","indexed":false,"internalType":"address"}],"anonymous":false},{"type":"event","name":"SubmissionAutoVerified","inputs":[{"name":"hash","type":"bytes32","indexed":true,"internalType":"bytes32"},{"name":"user_hash","type":"bytes32","indexed":true,"internalType":"bytes32"}],"anonymous":false},{"type":"event","name":"SubmissionCreated","inputs":[{"name":"hash","type":"bytes32","indexed":true,"internalType":"bytes32"},{"name":"ean_hash","type":"bytes32","indexed":true,"internalType":"bytes32"},{"name":"price_cents","type":"uint64","indexed":false,"internalType":"uint64"},{"name":"currency","type":"bytes3","indexed":false,"internalType":"bytes3"},{"name":"lat6","type":"int32","indexed":false,"internalType":"int32"},{"name":"lng6","type":"int32","indexed":false,"internalType":"int32"},{"name":"geohash5","type":"string","indexed":false,"internalType":"string"},{"name":"user_hash","type":"bytes32","indexed":true,"internalType":"bytes32"},{"name":"is_first_mover","type":"bool","indexed":false,"internalType":"bool"},{"name":"timestamp","type":"uint32","indexed":false,"internalType":"uint32"}],"anonymous":false},{"type":"event","name":"Unpaused","inputs":[{"name":"account","type":"address","indexed":false,"internalType":"address"}],"anonymous":false},{"type":"event","name":"Upgraded","inputs":[{"name":"implementation","type":"address","indexed":true,"internalType":"address"}],"anonymous":false},{"type":"error","name":"AddressEmptyCode","inputs":[{"name":"target","type":"address","internalType":"address"}]},{"type":"error","name":"ERC1967InvalidImplementation","inputs":[{"name":"implementation","type":"address","internalType":"address"}]},{"type":"error","name":"ERC1967NonPayable","inputs":[]},{"type":"error","name":"EnforcedPause","inputs":[]},{"type":"error","name":"ExpectedPause","inputs":[]},{"type":"error","name":"FailedCall","inputs":[]},{"type":"error","name":"HashAlreadyExists","inputs":[{"name":"hash","type":"bytes32","internalType":"bytes32"}]},{"type":"error","name":"InvalidCoordinates","inputs":[{"name":"lat6","type":"int32","internalType":"int32"},{"name":"lng6","type":"int32","internalType":"int32"}]},{"type":"error","name":"InvalidCurrency","inputs":[{"name":"currency","type":"bytes3","internalType":"bytes3"}]},{"type":"error","name":"InvalidEanHash","inputs":[]},{"type":"error","name":"InvalidInitialization","inputs":[]},{"type":"error","name":"InvalidPrice","inputs":[]},{"type":"error","name":"InvalidUserHash","inputs":[]},{"type":"error","name":"NotInitializing","inputs":[]},{"type":"error","name":"OwnableInvalidOwner","inputs":[{"name":"owner","type":"address","internalType":"address"}]},{"type":"error","name":"OwnableUnauthorizedAccount","inputs":[{"name":"account","type":"address","internalType":"address"}]},{"type":"error","name":"RateLimitExceeded","inputs":[{"name":"user_hash","type":"bytes32","internalType":"bytes32"},{"name":"day","type":"uint32","internalType":"uint32"}]},{"type":"error","name":"ReentrancyGuardReentrantCall","inputs":[]},{"type":"error","name":"UUPSUnauthorizedCallContext","inputs":[]},{"type":"error","name":"UUPSUnsupportedProxiableUUID","inputs":[{"name":"slot","type":"bytes32","internalType":"bytes32"}]}],"bytecode":{"object":"0x60a060405230608052348015610013575f80fd5b5060017f9b779b17422d0df92223018b32b4d1fa46e071723d6817e2486d003becc55f0055610040610045565b6100f7565b7ff0c57e16840df040f15088dc2f81fe391c3923bec73e23a9662efc9c229c6a00805468010000000000000000900460ff16156100955760405163f92ee8a960e01b815260040160405180910390fd5b80546001600160401b03908116146100f45780546001600160401b0319166001600160401b0390811782556040519081527fc7f505b2f371ae2175ee4913f4499e1f2633a7b5936321eed1cdaeb6115181d29060200160405180910390a15b50565b60805161201e61011d5f395f81816113450152818161136e01526114b2015261201e5ff3fe608060405260043610610131575f3560e01c80638da5cb5b116100a8578063b2284a8b1161006d578063b2284a8b146103a8578063b535b5c3146103bc578063b676bfad146103ea578063c4d66de814610409578063c5c9c0a214610428578063f2fde38b14610460575f80fd5b80638da5cb5b146102bc5780639263998314610302578063a39540161461032b578063ad3cb1cc14610340578063b1edae771461037d575f80fd5b80635c975abb116100f95780635c975abb146101cf578063715018a6146101fe578063744b9e9214610212578063756dd3a41461025d5780637f1e8655146102895780638456cb59146102a8575f80fd5b806307ede837146101355780631aaa3faa146101735780633f4ba83a146101945780634f1ef286146101a857806352d1902d146101bb575b5f80fd5b348015610140575f80fd5b5061016061014f36600461184e565b60026020525f908152604090205481565b6040519081526020015b60405180910390f35b34801561017e575f80fd5b5061019261018d3660046118bf565b61047f565b005b34801561019f575f80fd5b506101926109f4565b6101926101b636600461199e565b610a06565b3480156101c6575f80fd5b50610160610a25565b3480156101da575f80fd5b505f80516020611fc98339815191525460ff165b604051901515815260200161016a565b348015610209575f80fd5b50610192610a40565b34801561021d575f80fd5b5061024b61022c366004611a59565b600360209081525f928352604080842090915290825290205460ff1681565b60405160ff909116815260200161016a565b348015610268575f80fd5b5061027c61027736600461184e565b610a51565b60405161016a9190611ad2565b348015610294575f80fd5b506101ee6102a3366004611bed565b610c28565b3480156102b3575f80fd5b50610192610c4d565b3480156102c7575f80fd5b507f9016d09d72d40fdae2fd8ceac6b6234c7706214fd39c1cd1e609a0528c199300546040516001600160a01b03909116815260200161016a565b34801561030d575f80fd5b50610318620249f081565b60405160039190910b815260200161016a565b348015610336575f80fd5b5061016060045481565b34801561034b575f80fd5b50610370604051806040016040528060058152602001640352e302e360dc1b81525081565b60405161016a9190611c26565b348015610388575f80fd5b506103936203f48081565b60405163ffffffff909116815260200161016a565b3480156103b3575f80fd5b5061024b600a81565b3480156103c7575f80fd5b506101ee6103d636600461184e565b60016020525f908152604090205460ff1681565b3480156103f5575f80fd5b5061019261040436600461184e565b610c5d565b348015610414575f80fd5b50610192610423366004611c38565b610df6565b348015610433575f80fd5b5061044761044236600461184e565b610ef5565b60405161016a9d9c9b9a99989796959493929190611c51565b34801561046b575f80fd5b5061019261047a366004611c38565b611011565b61048761104e565b61048f61107e565b886104ad57604051630166c99b60e31b815260040160405180910390fd5b876104cb57604051630166c99b60e31b815260040160405180910390fd5b806104e95760405163c1fbe84760e01b815260040160405180910390fd5b866001600160401b03165f036105115760405162bfc92160e01b815260040160405180910390fd5b61051a866110ac565b6105485760405163012fcddb60e11b81526001600160e81b0319871660048201526024015b60405180910390fd5b61055285856111b0565b61057d57604051634dada5ed60e01b8152600386810b600483015285900b602482015260440161053f565b5f8981526001602052604090205460ff16156105af57604051630520235f60e11b8152600481018a905260240161053f565b5f6105bd6201518042611d1e565b5f83815260036020908152604080832063ffffffff85168452909152902054909150600a60ff90911610610613576040516372e8e2a960e01b81526004810183905263ffffffff8216602482015260440161053f565b5f8a8152600160208181526040808420805460ff19169093179092558483526003815281832063ffffffff8516845290528120805460ff169161065583611d31565b91906101000a81548160ff021916908360ff160217905550505f61067a8a88886111fe565b5f818152600260205260409020549091501580156106a7575f8281526002602052604090208c90556106e2565b5f8281526002602052604080822054905186928f92917f3a9d46ecf68999c13630c70bd957b1792a6e55fb5f7ea8c98c950fc8e7c02c349190a45b5f6106f06203f48042611d4f565b9050604051806101a001604052808d81526020018c6001600160401b031681526020018b6001600160e81b03191681526020018a60030b81526020018960030b815260200188888080601f0160208091040260200160405190810160405280939291908181526020018383808284375f81840152601f19601f8201169050808301925050505050505081526020018681526020014263ffffffff16815260200183151581526020015f60ff1681526020015f63ffffffff1681526020015f63ffffffff1681526020018263ffffffff168152505f808f81526020019081526020015f205f820151815f01556020820151816001015f6101000a8154816001600160401b0302191690836001600160401b0316021790555060408201518160010160086101000a81548162ffffff021916908360e81c0217905550606082015181600101600b6101000a81548163ffffffff021916908360030b63ffffffff160217905550608082015181600101600f6101000a81548163ffffffff021916908360030b63ffffffff16021790555060a08201518160020190816108939190611def565b5060c0820151600382015560e0820151600491820180546101008501516101208601516101408701516101608801516101809098015163ffffffff96871664ffffffffff1990951694909417640100000000931515939093029290921769ffffffffff00000000001916600160281b60ff9092169190910269ffffffff000000000000191617600160301b918516919091021767ffffffffffffffff60501b1916600160501b9584169590950263ffffffff60701b191694909417600160701b9290941691909102929092179091558054905f61096f83611eaa565b9190505550848c8e7fcde3046e7e138eb5ae54a3265deaddfd2bb18e92f086ea5c665ebd822f5f43f18e8e8e8e8e8e8b426040516109b4989796959493929190611ec2565b60405180910390a4505050506109e960017f9b779b17422d0df92223018b32b4d1fa46e071723d6817e2486d003becc55f0055565b505050505050505050565b6109fc611280565b610a046112db565b565b610a0e61133a565b610a17826113de565b610a2182826113e6565b5050565b5f610a2e6114a7565b505f80516020611fa983398151915290565b610a48611280565b610a045f6114f0565b604080516101a0810182525f8082526020820181905291810182905260608082018390526080820183905260a082015260c0810182905260e0810182905261010081018290526101208101829052610140810182905261016081018290526101808101919091525f828152602081815260409182902082516101a0810184528154815260018201546001600160401b038116938201939093526001600160e81b0319600160401b840460e81b1693810193909352600160581b8204600390810b6060850152600160781b90920490910b608083015260028101805460a084019190610b3b90611d6c565b80601f0160208091040260200160405190810160405280929190818152602001828054610b6790611d6c565b8015610bb25780601f10610b8957610100808354040283529160200191610bb2565b820191905f5260205f20905b815481529060010190602001808311610b9557829003601f168201915b50505091835250506003820154602082015260049091015463ffffffff808216604084015260ff6401000000008304811615156060850152600160281b8304166080840152600160301b8204811660a0840152600160501b8204811660c0840152600160701b9091041660e09091015292915050565b5f80610c358585856111fe565b5f908152600260205260409020541595945050505050565b610c55611280565b610a04611560565b610c6561104e565b5f818152602081905260409020600481015463ffffffff16610cc05760405162461bcd60e51b815260206004820152601460248201527314dd589b5a5cdcda5bdb881b9bdd08199bdd5b9960621b604482015260640161053f565b6004810154600160281b900460ff1615610d0a5760405162461bcd60e51b815260206004820152600b60248201526a4e6f742070656e64696e6760a81b604482015260640161053f565b6004810154600160701b900463ffffffff16421015610d5d5760405162461bcd60e51b815260206004820152600f60248201526e0dcc9a081b9bdd08195b185c1cd959608a1b604482015260640161053f565b6004810154600160501b900463ffffffff1615610dac5760405162461bcd60e51b815260206004820152600d60248201526c48617320646f776e766f74657360981b604482015260640161053f565b60048101805465ff00000000001916600160281b179055600381015460405183907f1203e9faca61f91db68e7cfeac9aff78d6afba3a9c250338997f2920cd9aa1bc905f90a35050565b5f610dff6115a8565b805490915060ff600160401b82041615906001600160401b03165f81158015610e255750825b90505f826001600160401b03166001148015610e405750303b155b905081158015610e4e575080155b15610e6c5760405163f92ee8a960e01b815260040160405180910390fd5b845467ffffffffffffffff191660011785558315610e9657845460ff60401b1916600160401b1785555b610e9f866115d0565b610ea76115e1565b8315610eed57845460ff60401b19168555604051600181527fc7f505b2f371ae2175ee4913f4499e1f2633a7b5936321eed1cdaeb6115181d29060200160405180910390a15b505050505050565b5f6020819052908152604090208054600182015460028301805492936001600160401b03831693600160401b840460e81b93600160581b8104600390810b94600160781b909204900b9291610f4990611d6c565b80601f0160208091040260200160405190810160405280929190818152602001828054610f7590611d6c565b8015610fc05780601f10610f9757610100808354040283529160200191610fc0565b820191905f5260205f20905b815481529060010190602001808311610fa357829003601f168201915b505050600384015460049094015492939263ffffffff808216935060ff640100000000830481169350600160281b83041691600160301b8104821691600160501b8204811691600160701b9004168d565b611019611280565b6001600160a01b03811661104257604051631e4fbdf760e01b81525f600482015260240161053f565b61104b816114f0565b50565b5f80516020611fc98339815191525460ff1615610a045760405163d93c066560e01b815260040160405180910390fd5b6110866115e9565b60027f9b779b17422d0df92223018b32b4d1fa46e071723d6817e2486d003becc55f0055565b5f6222aaa960e91b6001600160e81b0319831614806110da57506204742560ec1b6001600160e81b03198316145b806110f457506221a42360e91b6001600160e81b03198316145b8061110e57506228262760e91b6001600160e81b03198316145b80611128575062435a4b60e81b6001600160e81b03198316145b80611142575062242aa360e91b6001600160e81b03198316145b8061115c5750622927a760e91b6001600160e81b03198316145b8061117657506253454b60e81b6001600160e81b03198316145b806111905750624e4f4b60e81b6001600160e81b03198316145b806111aa575062444b4b60e81b6001600160e81b03198316145b92915050565b5f63055d4a7f198360030b121580156111d0575063055d4a808360030b13155b80156111e45750630aba94ff198260030b12155b80156111f75750630aba95008260030b13155b9392505050565b5f80620249f061120e8186611f39565b6112189190611f72565b90505f620249f06112298186611f39565b6112339190611f72565b905085828260405160200161125f9392919092835260e091821b6020840152901b602482015260280190565b60405160208183030381529060405280519060200120925050509392505050565b336112b27f9016d09d72d40fdae2fd8ceac6b6234c7706214fd39c1cd1e609a0528c199300546001600160a01b031690565b6001600160a01b031614610a045760405163118cdaa760e01b815233600482015260240161053f565b6112e361162b565b5f80516020611fc9833981519152805460ff191681557f5db9ee0a495bf2e6ff9c91a7834c1ba4fdd244a5e8aa4e537bd38aeae4b073aa335b6040516001600160a01b03909116815260200160405180910390a150565b306001600160a01b037f00000000000000000000000000000000000000000000000000000000000000001614806113c057507f00000000000000000000000000000000000000000000000000000000000000006001600160a01b03166113b45f80516020611fa9833981519152546001600160a01b031690565b6001600160a01b031614155b15610a045760405163703e46dd60e11b815260040160405180910390fd5b61104b611280565b816001600160a01b03166352d1902d6040518163ffffffff1660e01b8152600401602060405180830381865afa925050508015611440575060408051601f3d908101601f1916820190925261143d91810190611f91565b60015b61146857604051634c9c8ce360e01b81526001600160a01b038316600482015260240161053f565b5f80516020611fa9833981519152811461149857604051632a87526960e21b81526004810182905260240161053f565b6114a2838361165a565b505050565b306001600160a01b037f00000000000000000000000000000000000000000000000000000000000000001614610a045760405163703e46dd60e11b815260040160405180910390fd5b7f9016d09d72d40fdae2fd8ceac6b6234c7706214fd39c1cd1e609a0528c19930080546001600160a01b031981166001600160a01b03848116918217845560405192169182907f8be0079c531659141344cd1fd0a4f28419497f9722a3daafe3b4186f6b6457e0905f90a3505050565b61156861104e565b5f80516020611fc9833981519152805460ff191660011781557f62e78cea01bee320cd4e420270b5ea74000d11b0c9f74754ebdbfc544b05a2583361131c565b5f807ff0c57e16840df040f15088dc2f81fe391c3923bec73e23a9662efc9c229c6a006111aa565b6115d86116af565b61104b816116d4565b610a046116af565b7f9b779b17422d0df92223018b32b4d1fa46e071723d6817e2486d003becc55f0054600203610a0457604051633ee5aeb560e01b815260040160405180910390fd5b5f80516020611fc98339815191525460ff16610a0457604051638dfc202b60e01b815260040160405180910390fd5b611663826116dc565b6040516001600160a01b038316907fbc7cd75a20ee27fd9adebab32041f755214dbc6bffa90cc0225b39da2e5c2d3b905f90a28051156116a7576114a2828261173f565b610a216117df565b6116b76117fe565b610a0457604051631afcd79f60e31b815260040160405180910390fd5b6110196116af565b806001600160a01b03163b5f0361171157604051634c9c8ce360e01b81526001600160a01b038216600482015260240161053f565b5f80516020611fa983398151915280546001600160a01b0319166001600160a01b0392909216919091179055565b60605f61174c8484611817565b905080801561176d57505f3d118061176d57505f846001600160a01b03163b115b156117825761177a61182a565b9150506111aa565b80156117ac57604051639996b31560e01b81526001600160a01b038516600482015260240161053f565b3d156117bf576117ba611843565b6117d8565b60405163d6bda27560e01b815260040160405180910390fd5b5092915050565b3415610a045760405163b398979f60e01b815260040160405180910390fd5b5f6118076115a8565b54600160401b900460ff16919050565b5f805f835160208501865af49392505050565b6040513d81523d5f602083013e3d602001810160405290565b6040513d5f823e3d81fd5b5f6020828403121561185e575f80fd5b5035919050565b8035600381900b8114611876575f80fd5b919050565b5f8083601f84011261188b575f80fd5b5081356001600160401b038111156118a1575f80fd5b6020830191508360208285010111156118b8575f80fd5b9250929050565b5f805f805f805f805f6101008a8c0312156118d8575f80fd5b8935985060208a0135975060408a01356001600160401b0380821682146118fd575f80fd5b90975060608b0135906001600160e81b03198216821461191b575f80fd5b81975061192a60808d01611865565b965061193860a08d01611865565b955060c08c013591508082111561194d575f80fd5b5061195a8c828d0161187b565b9a9d999c50979a9699959894979660e00135949350505050565b80356001600160a01b0381168114611876575f80fd5b634e487b7160e01b5f52604160045260245ffd5b5f80604083850312156119af575f80fd5b6119b883611974565b915060208301356001600160401b03808211156119d3575f80fd5b818501915085601f8301126119e6575f80fd5b8135818111156119f8576119f861198a565b604051601f8201601f19908116603f01168101908382118183101715611a2057611a2061198a565b81604052828152886020848701011115611a38575f80fd5b826020860160208301375f6020848301015280955050505050509250929050565b5f8060408385031215611a6a575f80fd5b82359150602083013563ffffffff81168114611a84575f80fd5b809150509250929050565b5f81518084525f5b81811015611ab357602081850181015186830182015201611a97565b505f602082860101526020601f19601f83011685010191505092915050565b60208152815160208201525f6020830151611af860408401826001600160401b03169052565b5060408301516001600160e81b031981166060840152506060830151611b23608084018260030b9052565b506080830151611b3860a084018260030b9052565b5060a08301516101a08060c0850152611b556101c0850183611a8f565b915060c085015160e085015260e0850151610100611b7a8187018363ffffffff169052565b8601519050610120611b8f8682018315159052565b8601519050610140611ba58682018360ff169052565b8601519050610160611bbe8682018363ffffffff169052565b8601519050610180611bd78682018363ffffffff169052565b9095015163ffffffff1693019290925250919050565b5f805f60608486031215611bff575f80fd5b83359250611c0f60208501611865565b9150611c1d60408501611865565b90509250925092565b602081525f6111f76020830184611a8f565b5f60208284031215611c48575f80fd5b6111f782611974565b8d81526001600160401b038d1660208201526001600160e81b03198c16604082015260038b810b60608301528a900b60808201525f6101a08060a0840152611c9b8184018c611a8f565b9150508860c0830152611cb660e083018963ffffffff169052565b95151561010082015260ff9490941661012085015263ffffffff928316610140850152908216610160840152166101809091015298975050505050505050565b634e487b7160e01b5f52601260045260245ffd5b634e487b7160e01b5f52601160045260245ffd5b5f82611d2c57611d2c611cf6565b500490565b5f60ff821660ff8103611d4657611d46611d0a565b60010192915050565b63ffffffff8181168382160190808211156117d8576117d8611d0a565b600181811c90821680611d8057607f821691505b602082108103611d9e57634e487b7160e01b5f52602260045260245ffd5b50919050565b601f8211156114a257805f5260205f20601f840160051c81016020851015611dc95750805b601f840160051c820191505b81811015611de8575f8155600101611dd5565b5050505050565b81516001600160401b03811115611e0857611e0861198a565b611e1c81611e168454611d6c565b84611da4565b602080601f831160018114611e4f575f8415611e385750858301515b5f19600386901b1c1916600185901b178555610eed565b5f85815260208120601f198616915b82811015611e7d57888601518255948401946001909101908401611e5e565b5085821015611e9a57878501515f19600388901b60f8161c191681555b5050505050600190811b01905550565b5f60018201611ebb57611ebb611d0a565b5060010190565b6001600160401b038916815262ffffff60e81b881660208201528660030b60408201528560030b606082015260e060808201528360e08201525f6101008587828501375f83870182015293151560a08301525063ffffffff9190911660c0820152601f909201601f19169091010195945050505050565b5f8160030b8360030b80611f4f57611f4f611cf6565b637fffffff1982145f1982141615611f6957611f69611d0a565b90059392505050565b5f8260030b8260030b028060030b91508082146117d8576117d8611d0a565b5f60208284031215611fa1575f80fd5b505191905056fe360894a13ba1a3210667c828492db98dca3e2076cc3735a920a3ca505d382bbccd5ed15c6e187e77e9aee88184c21f4f2182ab5827cb3b7e07fbedcd63f03300a26469706673582212204c5272edd76bd1347ca8dcf838bf30541c2c5ba3eb47ab9364b5d97210a8643664736f6c63430008180033","linkReferences":{}},"methodIdentifiers":{"LOCATION_SNAP()":"92639983","MAX_DAILY_SUBMISSIONS()":"b2284a8b","SILENT_CONSENSUS_SECONDS()":"b1edae77","UPGRADE_INTERFACE_VERSION()":"ad3cb1cc","dailySubmissions(bytes32,uint32)":"744b9e92","firstMoverByLocation(bytes32)":"07ede837","getSubmission(bytes32)":"756dd3a4","hashExists(bytes32)":"b535b5c3","initialize(address)":"c4d66de8","isFirstMoverFor(bytes32,int32,int32)":"7f1e8655","owner()":"8da5cb5b","pause()":"8456cb59","paused()":"5c975abb","proxiableUUID()":"52d1902d","renounceOwnership()":"715018a6","submissions(bytes32)":"c5c9c0a2","submit(bytes32,bytes32,uint64,bytes3,int32,int32,string,bytes32)":"1aaa3faa","totalSubmissions()":"a3954016","transferOwnership(address)":"f2fde38b","triggerSilentConsensus(bytes32)":"b676bfad","unpause()":"3f4ba83a","upgradeToAndCall(address,bytes)":"4f1ef286"},"id":37}