{"abi":[{"type":"constructor","inputs":[],"stateMutability":"nonpayable"},{"type":"function","name":"CONSENSUS_DISPUTE_BPS","inputs":[],"outputs":[{"name":"","type":"uint16","internalType":"uint16"}],"stateMutability":"view"},{"type":"function","name":"CONSENSUS_VERIFY_BPS","inputs":[],"outputs":[{"name":"","type":"uint16","internalType":"uint16"}],"stateMutability":"view"},{"type":"function","name":"DEFAULT_TRUST","inputs":[],"outputs":[{"name":"","type":"uint16","internalType":"uint16"}],"stateMutability":"view"},{"type":"function","name":"LOCALITY_WINDOW","inputs":[],"outputs":[{"name":"","type":"uint32","internalType":"uint32"}],"stateMutability":"view"},{"type":"function","name":"MAX_NEG_VOTES_PAIR","inputs":[],"outputs":[{"name":"","type":"uint8","internalType":"uint8"}],"stateMutability":"view"},{"type":"function","name":"MAX_TRUST","inputs":[],"outputs":[{"name":"","type":"uint16","internalType":"uint16"}],"stateMutability":"view"},{"type":"function","name":"MIN_TRUST","inputs":[],"outputs":[{"name":"","type":"uint16","internalType":"uint16"}],"stateMutability":"view"},{"type":"function","name":"MIN_VOTES_CONSENSUS","inputs":[],"outputs":[{"name":"","type":"uint8","internalType":"uint8"}],"stateMutability":"view"},{"type":"function","name":"NEG_VOTE_WINDOW","inputs":[],"outputs":[{"name":"","type":"uint32","internalType":"uint32"}],"stateMutability":"view"},{"type":"function","name":"TRUST_GAIN_SUB","inputs":[],"outputs":[{"name":"","type":"uint16","internalType":"uint16"}],"stateMutability":"view"},{"type":"function","name":"TRUST_GAIN_VOTE","inputs":[],"outputs":[{"name":"","type":"uint16","internalType":"uint16"}],"stateMutability":"view"},{"type":"function","name":"TRUST_LOSS_LIAR","inputs":[],"outputs":[{"name":"","type":"uint16","internalType":"uint16"}],"stateMutability":"view"},{"type":"function","name":"TRUST_RECOVERY","inputs":[],"outputs":[{"name":"","type":"uint16","internalType":"uint16"}],"stateMutability":"view"},{"type":"function","name":"UPGRADE_INTERFACE_VERSION","inputs":[],"outputs":[{"name":"","type":"string","internalType":"string"}],"stateMutability":"view"},{"type":"function","name":"getRewardMultiplier","inputs":[{"name":"u","type":"bytes32","internalType":"bytes32"}],"outputs":[{"name":"num","type":"uint256","internalType":"uint256"},{"name":"den","type":"uint256","internalType":"uint256"}],"stateMutability":"view"},{"type":"function","name":"getTrust","inputs":[{"name":"u","type":"bytes32","internalType":"bytes32"}],"outputs":[{"name":"","type":"uint16","internalType":"uint16"}],"stateMutability":"view"},{"type":"function","name":"getVoteStatus","inputs":[{"name":"sub","type":"bytes32","internalType":"bytes32"}],"outputs":[{"name":"up","type":"uint32","internalType":"uint32"},{"name":"down","type":"uint32","internalType":"uint32"},{"name":"voters","type":"uint16","internalType":"uint16"},{"name":"consensus","type":"bool","internalType":"bool"}],"stateMutability":"view"},{"type":"function","name":"hasVoted","inputs":[{"name":"sub","type":"bytes32","internalType":"bytes32"},{"name":"voter","type":"bytes32","internalType":"bytes32"}],"outputs":[{"name":"","type":"bool","internalType":"bool"}],"stateMutability":"view"},{"type":"function","name":"initialize","inputs":[{"name":"initialOwner","type":"address","internalType":"address"},{"name":"registryAddress","type":"address","internalType":"address"}],"outputs":[],"stateMutability":"nonpayable"},{"type":"function","name":"lastCleanDay","inputs":[{"name":"","type":"bytes32","internalType":"bytes32"}],"outputs":[{"name":"","type":"uint32","internalType":"uint32"}],"stateMutability":"view"},{"type":"function","name":"negVoteCount","inputs":[{"name":"","type":"bytes32","internalType":"bytes32"},{"name":"","type":"bytes32","internalType":"bytes32"},{"name":"","type":"uint32","internalType":"uint32"}],"outputs":[{"name":"","type":"uint8","internalType":"uint8"}],"stateMutability":"view"},{"type":"function","name":"owner","inputs":[],"outputs":[{"name":"","type":"address","internalType":"address"}],"stateMutability":"view"},{"type":"function","name":"pause","inputs":[],"outputs":[],"stateMutability":"nonpayable"},{"type":"function","name":"paused","inputs":[],"outputs":[{"name":"","type":"bool","internalType":"bool"}],"stateMutability":"view"},{"type":"function","name":"proxiableUUID","inputs":[],"outputs":[{"name":"","type":"bytes32","internalType":"bytes32"}],"stateMutability":"view"},{"type":"function","name":"recordRegionVisit","inputs":[{"name":"user_hash","type":"bytes32","internalType":"bytes32"},{"name":"geohash5","type":"string","internalType":"string"}],"outputs":[],"stateMutability":"nonpayable"},{"type":"function","name":"recoverTrust","inputs":[{"name":"user_hash","type":"bytes32","internalType":"bytes32"}],"outputs":[],"stateMutability":"nonpayable"},{"type":"function","name":"registry","inputs":[],"outputs":[{"name":"","type":"address","internalType":"contract IVendRegistry"}],"stateMutability":"view"},{"type":"function","name":"renounceOwnership","inputs":[],"outputs":[],"stateMutability":"nonpayable"},{"type":"function","name":"setRegistry","inputs":[{"name":"r","type":"address","internalType":"address"}],"outputs":[],"stateMutability":"nonpayable"},{"type":"function","name":"totalVoters","inputs":[{"name":"","type":"bytes32","internalType":"bytes32"}],"outputs":[{"name":"","type":"uint16","internalType":"uint16"}],"stateMutability":"view"},{"type":"function","name":"totalVotesCast","inputs":[{"name":"","type":"bytes32","internalType":"bytes32"}],"outputs":[{"name":"","type":"uint32","internalType":"uint32"}],"stateMutability":"view"},{"type":"function","name":"totalVotesGlobal","inputs":[],"outputs":[{"name":"","type":"uint256","internalType":"uint256"}],"stateMutability":"view"},{"type":"function","name":"transferOwnership","inputs":[{"name":"newOwner","type":"address","internalType":"address"}],"outputs":[],"stateMutability":"nonpayable"},{"type":"function","name":"trustScore","inputs":[{"name":"","type":"bytes32","internalType":"bytes32"}],"outputs":[{"name":"","type":"uint16","internalType":"uint16"}],"stateMutability":"view"},{"type":"function","name":"unpause","inputs":[],"outputs":[],"stateMutability":"nonpayable"},{"type":"function","name":"upgradeToAndCall","inputs":[{"name":"newImplementation","type":"address","internalType":"address"},{"name":"data","type":"bytes","internalType":"bytes"}],"outputs":[],"stateMutability":"payable"},{"type":"function","name":"userRegionLastSeen","inputs":[{"name":"","type":"bytes32","internalType":"bytes32"},{"name":"","type":"string","internalType":"string"}],"outputs":[{"name":"","type":"uint32","internalType":"uint32"}],"stateMutability":"view"},{"type":"function","name":"vote","inputs":[{"name":"submission_hash","type":"bytes32","internalType":"bytes32"},{"name":"voter_hash","type":"bytes32","internalType":"bytes32"},{"name":"upvote","type":"bool","internalType":"bool"}],"outputs":[],"stateMutability":"nonpayable"},{"type":"function","name":"votes","inputs":[{"name":"","type":"bytes32","internalType":"bytes32"},{"name":"","type":"bytes32","internalType":"bytes32"}],"outputs":[{"name":"","type":"uint8","internalType":"uint8"}],"stateMutability":"view"},{"type":"function","name":"weightedDownvotes","inputs":[{"name":"","type":"bytes32","internalType":"bytes32"}],"outputs":[{"name":"","type":"uint32","internalType":"uint32"}],"stateMutability":"view"},{"type":"function","name":"weightedUpvotes","inputs":[{"name":"","type":"bytes32","internalType":"bytes32"}],"outputs":[{"name":"","type":"uint32","internalType":"uint32"}],"stateMutability":"view"},{"type":"event","name":"ConsensusReached","inputs":[{"name":"submission_hash","type":"bytes32","indexed":true,"internalType":"bytes32"},{"name":"verified","type":"bool","indexed":false,"internalType":"bool"},{"name":"weighted_up","type":"uint32","indexed":false,"internalType":"uint32"},{"name":"weighted_down","type":"uint32","indexed":false,"internalType":"uint32"}],"anonymous":false},{"type":"event","name":"Initialized","inputs":[{"name":"version","type":"uint64","indexed":false,"internalType":"uint64"}],"anonymous":false},{"type":"event","name":"LocalityRecorded","inputs":[{"name":"user_hash","type":"bytes32","indexed":true,"internalType":"bytes32"},{"name":"geohash5","type":"string","indexed":false,"internalType":"string"},{"name":"timestamp","type":"uint32","indexed":false,"internalType":"uint32"}],"anonymous":false},{"type":"event","name":"OwnershipTransferred","inputs":[{"name":"previousOwner","type":"address","indexed":true,"internalType":"address"},{"name":"newOwner","type":"address","indexed":true,"internalType":"address"}],"anonymous":false},{"type":"event","name":"Paused","inputs":[{"name":"account","type":"address","indexed":false,"internalType":"address"}],"anonymous":false},{"type":"event","name":"TrustUpdated","inputs":[{"name":"user_hash","type":"bytes32","indexed":true,"internalType":"bytes32"},{"name":"old_trust","type":"uint16","indexed":false,"internalType":"uint16"},{"name":"new_trust","type":"uint16","indexed":false,"internalType":"uint16"},{"name":"reason","type":"string","indexed":false,"internalType":"string"}],"anonymous":false},{"type":"event","name":"Unpaused","inputs":[{"name":"account","type":"address","indexed":false,"internalType":"address"}],"anonymous":false},{"type":"event","name":"Upgraded","inputs":[{"name":"implementation","type":"address","indexed":true,"internalType":"address"}],"anonymous":false},{"type":"event","name":"VoteCast","inputs":[{"name":"submission_hash","type":"bytes32","indexed":true,"internalType":"bytes32"},{"name":"voter_hash","type":"bytes32","indexed":true,"internalType":"bytes32"},{"name":"upvote","type":"bool","indexed":false,"internalType":"bool"},{"name":"voter_trust","type":"uint16","indexed":false,"internalType":"uint16"},{"name":"weighted_up","type":"uint32","indexed":false,"internalType":"uint32"},{"name":"weighted_down","type":"uint32","indexed":false,"internalType":"uint32"}],"anonymous":false},{"type":"error","name":"AddressEmptyCode","inputs":[{"name":"target","type":"address","internalType":"address"}]},{"type":"error","name":"AlreadyVoted","inputs":[{"name":"sub","type":"bytes32","internalType":"bytes32"},{"name":"voter","type":"bytes32","internalType":"bytes32"}]},{"type":"error","name":"ERC1967InvalidImplementation","inputs":[{"name":"implementation","type":"address","internalType":"address"}]},{"type":"error","name":"ERC1967NonPayable","inputs":[]},{"type":"error","name":"EnforcedPause","inputs":[]},{"type":"error","name":"ExpectedPause","inputs":[]},{"type":"error","name":"FailedCall","inputs":[]},{"type":"error","name":"InvalidInitialization","inputs":[]},{"type":"error","name":"InvalidVoterHash","inputs":[]},{"type":"error","name":"LocalityCheckFailed","inputs":[{"name":"voter","type":"bytes32","internalType":"bytes32"},{"name":"geo","type":"string","internalType":"string"}]},{"type":"error","name":"NegVoteRateLimitExceeded","inputs":[{"name":"voter","type":"bytes32","internalType":"bytes32"},{"name":"target","type":"bytes32","internalType":"bytes32"}]},{"type":"error","name":"NotInitializing","inputs":[]},{"type":"error","name":"OwnableInvalidOwner","inputs":[{"name":"owner","type":"address","internalType":"address"}]},{"type":"error","name":"OwnableUnauthorizedAccount","inputs":[{"name":"account","type":"address","internalType":"address"}]},{"type":"error","name":"ReentrancyGuardReentrantCall","inputs":[]},{"type":"error","name":"SelfVoteNotAllowed","inputs":[]},{"type":"error","name":"SubmissionFinalized","inputs":[{"name":"hash","type":"bytes32","internalType":"bytes32"}]},{"type":"error","name":"SubmissionNotFound","inputs":[{"name":"hash","type":"bytes32","internalType":"bytes32"}]},{"type":"error","name":"UUPSUnauthorizedCallContext","inputs":[]},{"type":"error","name":"UUPSUnsupportedProxiableUUID","inputs":[{"name":"slot","type":"bytes32","internalType":"bytes32"}]}],"bytecode":{"object":"0x60a060405230608052348015610013575f80fd5b5060017f9b779b17422d0df92223018b32b4d1fa46e071723d6817e2486d003becc55f0055610040610045565b6100f7565b7ff0c57e16840df040f15088dc2f81fe391c3923bec73e23a9662efc9c229c6a00805468010000000000000000900460ff16156100955760405163f92ee8a960e01b815260040160405180910390fd5b80546001600160401b03908116146100f45780546001600160401b0319166001600160401b0390811782556040519081527fc7f505b2f371ae2175ee4913f4499e1f2633a7b5936321eed1cdaeb6115181d29060200160405180910390a15b50565b6080516122936200011e5f395f81816112630152818161128c01526113cb01526122935ff3fe608060405260043610610249575f3560e01c8063a01af49311610134578063cb9686e0116100b3578063f2fde38b11610078578063f2fde38b146107d7578063f4486ea7146107f6578063f60544071461080b578063fa7441d01461081f578063fc1a91a314610853578063fe46b8ee14610872575f80fd5b8063cb9686e014610778578063d11b3b6214610797578063d2d0fa49146107ad578063e2f1b737146107c2578063ee1f79ad146105f3575f80fd5b8063a994391e116100f9578063a994391e1461068c578063ad3cb1cc146106a0578063b8e4527e146106dd578063b93afd0a1461072a578063c05fdce914610759575f80fd5b8063a01af493146105f3578063a1cf373e14610607578063a32b3bb014610638578063a516f0e21461064e578063a91ee0dc1461066d575f80fd5b806352d1902d116101cb57806376988b6b1161019057806376988b6b146104f657806379265055146105275780637b1039991461053b5780637ebdeb72146105725780638456cb59146105a35780638da5cb5b146105b7575f80fd5b806352d1902d1461045e578063555eacd3146104805780635c975abb1461049457806367aab1d4146104c3578063715018a6146104e2575f80fd5b80633f4ba83a116102115780633f4ba83a146103a8578063409de6e8146103be578063485cc955146103fd5780634dfb9c801461041c5780634f1ef2861461044b575f80fd5b806303d9d48c1461024d5780630af395171461029d5780630cfe734d146102e35780630d2e1f481461036c5780631509bbcf14610393575b5f80fd5b348015610258575f80fd5b50610286610267366004611a81565b600260209081525f928352604080842090915290825290205460ff1681565b60405160ff90911681526020015b60405180910390f35b3480156102a8575f80fd5b506102ce6102b7366004611aa1565b60036020525f908152604090205463ffffffff1681565b60405163ffffffff9091168152602001610294565b3480156102ee575f80fd5b506103396102fd366004611aa1565b5f908152600360208181526040808420546004835281852054600590935293205463ffffffff93841694939091169261ffff9091169182101590565b6040805163ffffffff958616815294909316602085015261ffff9091169183019190915215156060820152608001610294565b348015610377575f80fd5b50610380606481565b60405161ffff9091168152602001610294565b34801561039e575f80fd5b50610380611d4c81565b3480156103b3575f80fd5b506103bc610887565b005b3480156103c9575f80fd5b506102866103d8366004611ac9565b600660209081525f938452604080852082529284528284209052825290205460ff1681565b348015610408575f80fd5b506103bc610417366004611b1a565b610899565b348015610427575f80fd5b50610380610436366004611aa1565b60056020525f908152604090205461ffff1681565b6103bc610459366004611c1c565b6109b6565b348015610469575f80fd5b506104726109d5565b604051908152602001610294565b34801561048b575f80fd5b50610380600281565b34801561049f575f80fd5b505f8051602061223e8339815191525460ff165b6040519015158152602001610294565b3480156104ce575f80fd5b506104b36104dd366004611a81565b6109f0565b3480156104ed575f80fd5b506103bc610a15565b348015610501575f80fd5b506102ce610510366004611aa1565b60086020525f908152604090205463ffffffff1681565b348015610532575f80fd5b50610380600581565b348015610546575f80fd5b50600a5461055a906001600160a01b031681565b6040516001600160a01b039091168152602001610294565b34801561057d575f80fd5b506102ce61058c366004611aa1565b60046020525f908152604090205463ffffffff1681565b3480156105ae575f80fd5b506103bc610a26565b3480156105c2575f80fd5b507f9016d09d72d40fdae2fd8ceac6b6234c7706214fd39c1cd1e609a0528c199300546001600160a01b031661055a565b3480156105fe575f80fd5b50610286600381565b348015610612575f80fd5b506102ce610621366004611aa1565b60016020525f908152604090205463ffffffff1681565b348015610643575f80fd5b506102ce62278d0081565b348015610659575f80fd5b506103bc610668366004611c7a565b610a36565b348015610678575f80fd5b506103bc610687366004611cef565b610aea565b348015610697575f80fd5b50610380600181565b3480156106ab575f80fd5b506106d0604051806040016040528060058152602001640352e302e360dc1b81525081565b6040516102949190611d55565b3480156106e8575f80fd5b506102ce6106f7366004611d67565b600760209081525f9283526040909220815180830184018051928152908401929093019190912091525463ffffffff1681565b348015610735575f80fd5b50610380610744366004611aa1565b5f6020819052908152604090205461ffff1681565b348015610764575f80fd5b50610380610773366004611aa1565b610b14565b348015610783575f80fd5b506103bc610792366004611da2565b610b1e565b3480156107a2575f80fd5b506102ce62093a8081565b3480156107b8575f80fd5b50610380611f4081565b3480156107cd575f80fd5b5061047260095481565b3480156107e2575f80fd5b506103bc6107f1366004611cef565b611004565b348015610801575f80fd5b506103806101f481565b348015610816575f80fd5b50610380603281565b34801561082a575f80fd5b5061083e610839366004611aa1565b611041565b60408051928352602083019190915201610294565b34801561085e575f80fd5b506103bc61086d366004611aa1565b61105b565b34801561087d575f80fd5b506103806103e881565b61088f61115d565b6108976111b8565b565b5f6108a2611217565b805490915060ff600160401b820416159067ffffffffffffffff165f811580156108c95750825b90505f8267ffffffffffffffff1660011480156108e55750303b155b9050811580156108f3575080155b156109115760405163f92ee8a960e01b815260040160405180910390fd5b845467ffffffffffffffff19166001178555831561093b57845460ff60401b1916600160401b1785555b6109448761123f565b61094c611250565b600a80546001600160a01b0319166001600160a01b03881617905583156109ad57845460ff60401b19168555604051600181527fc7f505b2f371ae2175ee4913f4499e1f2633a7b5936321eed1cdaeb6115181d29060200160405180910390a15b50505050505050565b6109be611258565b6109c7826112fc565b6109d18282611304565b5050565b5f6109de6113c0565b505f8051602061221e83398151915290565b5f82815260026020908152604080832084845290915290205460ff1615155b92915050565b610a1d61115d565b6108975f611409565b610a2e61115d565b610897611479565b610a3e6114c1565b82610a5c576040516347dd4eb960e11b815260040160405180910390fd5b4260075f8581526020019081526020015f208383604051610a7e929190611dcd565b90815260200160405180910390205f6101000a81548163ffffffff021916908363ffffffff160217905550827fc9d1c4ba16c8744f076d593ffb985beeda5b4c3742f9a71e1e110944908146bd838342604051610add93929190611ddc565b60405180910390a2505050565b610af261115d565b600a80546001600160a01b0319166001600160a01b0392909216919091179055565b5f610a0f826114f1565b610b266114c1565b610b2e61151a565b81610b4c576040516347dd4eb960e11b815260040160405180910390fd5b600a54604051631d5b74e960e21b8152600481018590525f916001600160a01b03169063756dd3a4906024015f60405180830381865afa158015610b92573d5f803e3d5ffd5b505050506040513d5f823e601f3d908101601f19168201604052610bb99190810190611ec8565b90508060e0015163ffffffff165f03610bed57604051630932f88760e11b8152600481018590526024015b60405180910390fd5b600281610120015160ff1610610c19576040516353b232fb60e01b815260048101859052602401610be4565b8060c001518303610c3d57604051636a12f21960e11b815260040160405180910390fd5b5f84815260026020908152604080832086845290915290205460ff1615610c815760405163215dee8f60e21b81526004810185905260248101849052604401610be4565b610c8f838260a00151611548565b610cb35760a0810151604051637892e04560e01b8152610be4918591600401612000565b81610d2b575f610cc662278d0042612040565b5f85815260066020908152604080832060c08701518452825280832063ffffffff85168452909152902054909150600360ff90911610610d295760c0820151604051637f28b84360e11b8152610be4918691600401918252602082015260400190565b505b5f610d35846114f1565b905061ffff811683610d48576002610d4b565b60015b5f8781526002602090815260408083208984529091529020805460ff191660ff929092169190911790558315610dc1575f8681526003602052604081208054839290610d9e90849063ffffffff16612053565b92506101000a81548163ffffffff021916908363ffffffff160217905550610e72565b5f8681526004602052604081208054839290610de490849063ffffffff16612053565b92506101000a81548163ffffffff021916908363ffffffff1602179055505f62278d0063ffffffff1642610e189190612040565b5f87815260066020908152604080832060c08901518452825280832063ffffffff851684529091528120805492935060ff9092169190610e5783612070565b91906101000a81548160ff021916908360ff16021790555050505b5f868152600560205260408120805461ffff1691610e8f8361208e565b825461ffff9182166101009390930a9283029190920219909116179055505f858152600860205260408120805463ffffffff1691610ecc836120ae565b91906101000a81548163ffffffff021916908363ffffffff1602179055505060095f815480929190610efd906120c6565b9190505550610f38856002604051806040016040528060128152602001713b37ba32afb830b93a34b1b4b830ba34b7b760711b8152506115ad565b5f86815260056020526040902054600361ffff90911610610f6157610f61868460c0015161166e565b5f868152600360209081526040808320546004835292819020548151881515815261ffff87169381019390935263ffffffff938416838301529290921660608201529051869188917fc007656b8c94c2ce53c72250393a903e7a2a3844267fb150ace7e66ea590d9c99181900360800190a3505050610fff60017f9b779b17422d0df92223018b32b4d1fa46e071723d6817e2486d003becc55f0055565b505050565b61100c61115d565b6001600160a01b03811661103557604051631e4fbdf760e01b81525f6004820152602401610be4565b61103e81611409565b50565b5f8061104c836114f1565b61ffff16936103e89350915050565b6110636114c1565b5f6110716201518042612040565b5f8381526001602052604081205491925063ffffffff909116908190036110bb57505f91825260016020526040909120805463ffffffff191663ffffffff92909216919091179055565b5f6110c682846120de565b90508063ffffffff165f036110db5750505050565b5f600160648363ffffffff16116110f257826110f5565b60645b6110ff91906120fb565b905061113285826040518060400160405280600e81526020016d6461696c795f7265636f7665727960901b8152506115ad565b5050505f91825260016020526040909120805463ffffffff191663ffffffff92909216919091179055565b3361118f7f9016d09d72d40fdae2fd8ceac6b6234c7706214fd39c1cd1e609a0528c199300546001600160a01b031690565b6001600160a01b0316146108975760405163118cdaa760e01b8152336004820152602401610be4565b6111c061181c565b5f8051602061223e833981519152805460ff191681557f5db9ee0a495bf2e6ff9c91a7834c1ba4fdd244a5e8aa4e537bd38aeae4b073aa335b6040516001600160a01b03909116815260200160405180910390a150565b5f807ff0c57e16840df040f15088dc2f81fe391c3923bec73e23a9662efc9c229c6a00610a0f565b61124761184b565b61103e81611870565b61089761184b565b306001600160a01b037f00000000000000000000000000000000000000000000000000000000000000001614806112de57507f00000000000000000000000000000000000000000000000000000000000000006001600160a01b03166112d25f8051602061221e833981519152546001600160a01b031690565b6001600160a01b031614155b156108975760405163703e46dd60e11b815260040160405180910390fd5b61103e61115d565b816001600160a01b03166352d1902d6040518163ffffffff1660e01b8152600401602060405180830381865afa92505050801561135e575060408051601f3d908101601f1916820190925261135b91810190612121565b60015b61138657604051634c9c8ce360e01b81526001600160a01b0383166004820152602401610be4565b5f8051602061221e83398151915281146113b657604051632a87526960e21b815260048101829052602401610be4565b610fff8383611878565b306001600160a01b037f000000000000000000000000000000000000000000000000000000000000000016146108975760405163703e46dd60e11b815260040160405180910390fd5b7f9016d09d72d40fdae2fd8ceac6b6234c7706214fd39c1cd1e609a0528c19930080546001600160a01b031981166001600160a01b03848116918217845560405192169182907f8be0079c531659141344cd1fd0a4f28419497f9722a3daafe3b4186f6b6457e0905f90a3505050565b6114816114c1565b5f8051602061223e833981519152805460ff191660011781557f62e78cea01bee320cd4e420270b5ea74000d11b0c9f74754ebdbfc544b05a258336111f9565b5f8051602061223e8339815191525460ff16156108975760405163d93c066560e01b815260040160405180910390fd5b5f8181526020819052604081205461ffff16801561150f5780611513565b6101f45b9392505050565b6115226118cd565b60027f9b779b17422d0df92223018b32b4d1fa46e071723d6817e2486d003becc55f0055565b5f828152600760205260408082209051829190611566908590612138565b9081526040519081900360200190205463ffffffff1690505f81900361158f575f915050610a0f565b62093a806115a363ffffffff831642612153565b1115949350505050565b5f6115b7846114f1565b90505f6115cc600185900b61ffff8416612166565b90505f6064600383900b136115e3575060646115fc565b6103e8600383900b126115f957506103e86115fc565b50805b8261ffff168161ffff1614611666575f8681526020819052604090819020805461ffff191661ffff84161790555186907f3f9d8739dbcfed75cf1a0c8e5466288008434e3f914d96b35ac7b3f3cd2e3c059061165d9086908590899061218d565b60405180910390a25b505050505050565b5f82815260036020908152604080832054600490925282205463ffffffff9182169291169061169d8284612053565b90508063ffffffff165f036116b3575050505050565b5f816116c1856127106121bc565b6116cb91906121dc565b90505f826116db856127106121bc565b6116e591906121dc565b9050611f4063ffffffff83161061177c5761172d866005604051806040016040528060138152602001721cdd589b5a5cdcda5bdb97dd995c9a599a5959606a1b8152506115ad565b604080516001815263ffffffff8781166020830152861681830152905188917f31c1dfc8391c2607ebae70af04b1e0e100336e647dd9c6a2325f9e3fde0e0dbe919081900360600190a26109ad565b611d4c63ffffffff8216106109ad576117ca8661179960326121fe565b604051806040016040528060138152602001721cdd589b5a5cdcda5bdb97d91a5cdc1d5d1959606a1b8152506115ad565b604080515f815263ffffffff8781166020830152861681830152905188917f31c1dfc8391c2607ebae70af04b1e0e100336e647dd9c6a2325f9e3fde0e0dbe919081900360600190a250505050505050565b5f8051602061223e8339815191525460ff1661089757604051638dfc202b60e01b815260040160405180910390fd5b61185361190f565b61089757604051631afcd79f60e31b815260040160405180910390fd5b61100c61184b565b61188182611928565b6040516001600160a01b038316907fbc7cd75a20ee27fd9adebab32041f755214dbc6bffa90cc0225b39da2e5c2d3b905f90a28051156118c557610fff828261198b565b6109d1611a2b565b7f9b779b17422d0df92223018b32b4d1fa46e071723d6817e2486d003becc55f005460020361089757604051633ee5aeb560e01b815260040160405180910390fd5b5f611918611217565b54600160401b900460ff16919050565b806001600160a01b03163b5f0361195d57604051634c9c8ce360e01b81526001600160a01b0382166004820152602401610be4565b5f8051602061221e83398151915280546001600160a01b0319166001600160a01b0392909216919091179055565b60605f6119988484611a4a565b90508080156119b957505f3d11806119b957505f846001600160a01b03163b115b156119ce576119c6611a5d565b915050610a0f565b80156119f857604051639996b31560e01b81526001600160a01b0385166004820152602401610be4565b3d15611a0b57611a06611a76565b611a24565b60405163d6bda27560e01b815260040160405180910390fd5b5092915050565b34156108975760405163b398979f60e01b815260040160405180910390fd5b5f805f835160208501865af49392505050565b6040513d81523d5f602083013e3d602001810160405290565b6040513d5f823e3d81fd5b5f8060408385031215611a92575f80fd5b50508035926020909101359150565b5f60208284031215611ab1575f80fd5b5035919050565b63ffffffff8116811461103e575f80fd5b5f805f60608486031215611adb575f80fd5b83359250602084013591506040840135611af481611ab8565b809150509250925092565b80356001600160a01b0381168114611b15575f80fd5b919050565b5f8060408385031215611b2b575f80fd5b611b3483611aff565b9150611b4260208401611aff565b90509250929050565b634e487b7160e01b5f52604160045260245ffd5b6040516101a0810167ffffffffffffffff81118282101715611b8357611b83611b4b565b60405290565b604051601f8201601f1916810167ffffffffffffffff81118282101715611bb257611bb2611b4b565b604052919050565b5f67ffffffffffffffff821115611bd357611bd3611b4b565b50601f01601f191660200190565b5f611bf3611bee84611bba565b611b89565b9050828152838383011115611c06575f80fd5b828260208301375f602084830101529392505050565b5f8060408385031215611c2d575f80fd5b611c3683611aff565b9150602083013567ffffffffffffffff811115611c51575f80fd5b8301601f81018513611c61575f80fd5b611c7085823560208401611be1565b9150509250929050565b5f805f60408486031215611c8c575f80fd5b83359250602084013567ffffffffffffffff80821115611caa575f80fd5b818601915086601f830112611cbd575f80fd5b813581811115611ccb575f80fd5b876020828501011115611cdc575f80fd5b6020830194508093505050509250925092565b5f60208284031215611cff575f80fd5b61151382611aff565b5f5b83811015611d22578181015183820152602001611d0a565b50505f910152565b5f8151808452611d41816020860160208601611d08565b601f01601f19169290920160200192915050565b602081525f6115136020830184611d2a565b5f8060408385031215611d78575f80fd5b82359150602083013567ffffffffffffffff811115611c51575f80fd5b801515811461103e575f80fd5b5f805f60608486031215611db4575f80fd5b83359250602084013591506040840135611af481611d95565b818382375f9101908152919050565b60408152826040820152828460608301375f606084830101525f6060601f19601f860116830101905063ffffffff83166020830152949350505050565b805167ffffffffffffffff81168114611b15575f80fd5b80516001600160e81b031981168114611b15575f80fd5b8051600381900b8114611b15575f80fd5b5f82601f830112611e67575f80fd5b8151611e75611bee82611bba565b818152846020838601011115611e89575f80fd5b611e9a826020830160208701611d08565b949350505050565b8051611b1581611ab8565b8051611b1581611d95565b805160ff81168114611b15575f80fd5b5f60208284031215611ed8575f80fd5b815167ffffffffffffffff80821115611eef575f80fd5b908301906101a08286031215611f03575f80fd5b611f0b611b5f565b82518152611f1b60208401611e19565b6020820152611f2c60408401611e30565b6040820152611f3d60608401611e47565b6060820152611f4e60808401611e47565b608082015260a083015182811115611f64575f80fd5b611f7087828601611e58565b60a08301525060c083015160c0820152611f8c60e08401611ea2565b60e08201526101009150611fa1828401611ead565b828201526101209150611fb5828401611eb8565b828201526101409150611fc9828401611ea2565b828201526101609150611fdd828401611ea2565b828201526101809150611ff1828401611ea2565b91810191909152949350505050565b828152604060208201525f611e9a6040830184611d2a565b634e487b7160e01b5f52601260045260245ffd5b634e487b7160e01b5f52601160045260245ffd5b5f8261204e5761204e612018565b500490565b63ffffffff818116838216019080821115611a2457611a2461202c565b5f60ff821660ff81036120855761208561202c565b60010192915050565b5f61ffff8083168181036120a4576120a461202c565b6001019392505050565b5f63ffffffff8083168181036120a4576120a461202c565b5f600182016120d7576120d761202c565b5060010190565b63ffffffff828116828216039080821115611a2457611a2461202c565b61ffff8181168382160280821691908281146121195761211961202c565b505092915050565b5f60208284031215612131575f80fd5b5051919050565b5f8251612149818460208701611d08565b9190910192915050565b81810381811115610a0f57610a0f61202c565b600381810b9083900b01637fffffff8113637fffffff1982121715610a0f57610a0f61202c565b5f61ffff8086168352808516602084015250606060408301526121b36060830184611d2a565b95945050505050565b63ffffffff8181168382160280821691908281146121195761211961202c565b5f63ffffffff808416806121f2576121f2612018565b92169190910492915050565b5f8160010b617fff1981036122155761221561202c565b5f039291505056fe360894a13ba1a3210667c828492db98dca3e2076cc3735a920a3ca505d382bbccd5ed15c6e187e77e9aee88184c21f4f2182ab5827cb3b7e07fbedcd63f03300a2646970667358221220e4ea7d8910004684023c7c46914bf2932f6707883fffd086b334a28fb18838e764736f6c63430008180033","linkReferences":{}},"methodIdentifiers":{"CONSENSUS_DISPUTE_BPS()":"1509bbcf","CONSENSUS_VERIFY_BPS()":"d2d0fa49","DEFAULT_TRUST()":"f4486ea7","LOCALITY_WINDOW()":"d11b3b62","MAX_NEG_VOTES_PAIR()":"a01af493","MAX_TRUST()":"fe46b8ee","MIN_TRUST()":"0d2e1f48","MIN_VOTES_CONSENSUS()":"ee1f79ad","NEG_VOTE_WINDOW()":"a32b3bb0","TRUST_GAIN_SUB()":"79265055","TRUST_GAIN_VOTE()":"555eacd3","TRUST_LOSS_LIAR()":"f6054407","TRUST_RECOVERY()":"a994391e","UPGRADE_INTERFACE_VERSION()":"ad3cb1cc","getRewardMultiplier(bytes32)":"fa7441d0","getTrust(bytes32)":"c05fdce9","getVoteStatus(bytes32)":"0cfe734d","hasVoted(bytes32,bytes32)":"67aab1d4","initialize(address,address)":"485cc955","lastCleanDay(bytes32)":"a1cf373e","negVoteCount(bytes32,bytes32,uint32)":"409de6e8","owner()":"8da5cb5b","pause()":"8456cb59","paused()":"5c975abb","proxiableUUID()":"52d1902d","recordRegionVisit(bytes32,string)":"a516f0e2","recoverTrust(bytes32)":"fc1a91a3","registry()":"7b103999","renounceOwnership()":"715018a6","setRegistry(address)":"a91ee0dc","totalVoters(bytes32)":"4dfb9c80","totalVotesCast(bytes32)":"76988b6b","totalVotesGlobal()":"e2f1b737","transferOwnership(address)":"f2fde38b","trustScore(bytes32)":"b93afd0a","unpause()":"3f4ba83a","upgradeToAndCall(address,bytes)":"4f1ef286","userRegionLastSeen(bytes32,string)":"b8e4527e","vote(bytes32,bytes32,bool)":"cb9686e0","votes(bytes32,bytes32)":"03d9d48c","weightedDownvotes(bytes32)":"7ebdeb72","weightedUpvotes(bytes32)":"0af39517"},"id":38}