{"abi":[{"type":"constructor","inputs":[],"stateMutability":"nonpayable"},{"type":"function","name":"CLAIM_COOLDOWN","inputs":[],"outputs":[{"name":"","type":"uint32","internalType":"uint32"}],"stateMutability":"view"},{"type":"function","name":"IFR_DECIMALS","inputs":[],"outputs":[{"name":"","type":"uint8","internalType":"uint8"}],"stateMutability":"view"},{"type":"function","name":"MIN_CLAIM_CREDITS","inputs":[],"outputs":[{"name":"","type":"uint256","internalType":"uint256"}],"stateMutability":"view"},{"type":"function","name":"UPGRADE_INTERFACE_VERSION","inputs":[],"outputs":[{"name":"","type":"string","internalType":"string"}],"stateMutability":"view"},{"type":"function","name":"canClaim","inputs":[{"name":"user_hash","type":"bytes32","internalType":"bytes32"}],"outputs":[{"name":"ready","type":"bool","internalType":"bool"},{"name":"reason","type":"string","internalType":"string"}],"stateMutability":"view"},{"type":"function","name":"claim","inputs":[{"name":"user_hash","type":"bytes32","internalType":"bytes32"},{"name":"credits_amount","type":"uint256","internalType":"uint256"}],"outputs":[],"stateMutability":"nonpayable"},{"type":"function","name":"claimNonce","inputs":[{"name":"","type":"bytes32","internalType":"bytes32"}],"outputs":[{"name":"","type":"uint256","internalType":"uint256"}],"stateMutability":"view"},{"type":"function","name":"creditsPerIfrUnit","inputs":[],"outputs":[{"name":"","type":"uint256","internalType":"uint256"}],"stateMutability":"view"},{"type":"function","name":"getClaimStatus","inputs":[{"name":"user_hash","type":"bytes32","internalType":"bytes32"}],"outputs":[{"name":"credits_balance","type":"uint256","internalType":"uint256"},{"name":"ifr_preview","type":"uint256","internalType":"uint256"},{"name":"next_claim_at","type":"uint32","internalType":"uint32"},{"name":"wallet_registered","type":"bool","internalType":"bool"},{"name":"total_claimed_credits","type":"uint256","internalType":"uint256"}],"stateMutability":"view"},{"type":"function","name":"initialize","inputs":[{"name":"initialOwner","type":"address","internalType":"address"},{"name":"rewardsAddress","type":"address","internalType":"address"},{"name":"initialRate","type":"uint256","internalType":"uint256"}],"outputs":[],"stateMutability":"nonpayable"},{"type":"function","name":"lastClaimAt","inputs":[{"name":"","type":"bytes32","internalType":"bytes32"}],"outputs":[{"name":"","type":"uint32","internalType":"uint32"}],"stateMutability":"view"},{"type":"function","name":"mainnetWallet","inputs":[{"name":"","type":"bytes32","internalType":"bytes32"}],"outputs":[{"name":"","type":"address","internalType":"address"}],"stateMutability":"view"},{"type":"function","name":"owner","inputs":[],"outputs":[{"name":"","type":"address","internalType":"address"}],"stateMutability":"view"},{"type":"function","name":"pause","inputs":[],"outputs":[],"stateMutability":"nonpayable"},{"type":"function","name":"paused","inputs":[],"outputs":[{"name":"","type":"bool","internalType":"bool"}],"stateMutability":"view"},{"type":"function","name":"previewClaim","inputs":[{"name":"credits_amount","type":"uint256","internalType":"uint256"}],"outputs":[{"name":"ifr_amount","type":"uint256","internalType":"uint256"}],"stateMutability":"view"},{"type":"function","name":"proxiableUUID","inputs":[],"outputs":[{"name":"","type":"bytes32","internalType":"bytes32"}],"stateMutability":"view"},{"type":"function","name":"registerWallet","inputs":[{"name":"user_hash","type":"bytes32","internalType":"bytes32"},{"name":"wallet_address","type":"address","internalType":"address"}],"outputs":[],"stateMutability":"nonpayable"},{"type":"function","name":"renounceOwnership","inputs":[],"outputs":[],"stateMutability":"nonpayable"},{"type":"function","name":"rewardsContract","inputs":[],"outputs":[{"name":"","type":"address","internalType":"contract IVendRewards"}],"stateMutability":"view"},{"type":"function","name":"setConversionRate","inputs":[{"name":"new_rate","type":"uint256","internalType":"uint256"}],"outputs":[],"stateMutability":"nonpayable"},{"type":"function","name":"setRewardsContract","inputs":[{"name":"r","type":"address","internalType":"address"}],"outputs":[],"stateMutability":"nonpayable"},{"type":"function","name":"totalClaimsCount","inputs":[],"outputs":[{"name":"","type":"uint256","internalType":"uint256"}],"stateMutability":"view"},{"type":"function","name":"totalCreditsClaimed","inputs":[{"name":"","type":"bytes32","internalType":"bytes32"}],"outputs":[{"name":"","type":"uint256","internalType":"uint256"}],"stateMutability":"view"},{"type":"function","name":"totalIfrClaimed","inputs":[],"outputs":[{"name":"","type":"uint256","internalType":"uint256"}],"stateMutability":"view"},{"type":"function","name":"transferOwnership","inputs":[{"name":"newOwner","type":"address","internalType":"address"}],"outputs":[],"stateMutability":"nonpayable"},{"type":"function","name":"unpause","inputs":[],"outputs":[],"stateMutability":"nonpayable"},{"type":"function","name":"upgradeToAndCall","inputs":[{"name":"newImplementation","type":"address","internalType":"address"},{"name":"data","type":"bytes","internalType":"bytes"}],"outputs":[],"stateMutability":"payable"},{"type":"event","name":"ClaimInitiated","inputs":[{"name":"user_hash","type":"bytes32","indexed":true,"internalType":"bytes32"},{"name":"mainnet_wallet","type":"address","indexed":true,"internalType":"address"},{"name":"credits_burned","type":"uint256","indexed":false,"internalType":"uint256"},{"name":"ifr_amount","type":"uint256","indexed":false,"internalType":"uint256"},{"name":"nonce","type":"uint256","indexed":false,"internalType":"uint256"},{"name":"timestamp","type":"uint32","indexed":false,"internalType":"uint32"}],"anonymous":false},{"type":"event","name":"Initialized","inputs":[{"name":"version","type":"uint64","indexed":false,"internalType":"uint64"}],"anonymous":false},{"type":"event","name":"OwnershipTransferred","inputs":[{"name":"previousOwner","type":"address","indexed":true,"internalType":"address"},{"name":"newOwner","type":"address","indexed":true,"internalType":"address"}],"anonymous":false},{"type":"event","name":"Paused","inputs":[{"name":"account","type":"address","indexed":false,"internalType":"address"}],"anonymous":false},{"type":"event","name":"RateUpdated","inputs":[{"name":"old_rate","type":"uint256","indexed":false,"internalType":"uint256"},{"name":"new_rate","type":"uint256","indexed":false,"internalType":"uint256"},{"name":"timestamp","type":"uint32","indexed":false,"internalType":"uint32"}],"anonymous":false},{"type":"event","name":"Unpaused","inputs":[{"name":"account","type":"address","indexed":false,"internalType":"address"}],"anonymous":false},{"type":"event","name":"Upgraded","inputs":[{"name":"implementation","type":"address","indexed":true,"internalType":"address"}],"anonymous":false},{"type":"event","name":"WalletRegistered","inputs":[{"name":"user_hash","type":"bytes32","indexed":true,"internalType":"bytes32"},{"name":"mainnet_wallet","type":"address","indexed":true,"internalType":"address"}],"anonymous":false},{"type":"error","name":"AddressEmptyCode","inputs":[{"name":"target","type":"address","internalType":"address"}]},{"type":"error","name":"AmountTooLow","inputs":[{"name":"amount","type":"uint256","internalType":"uint256"},{"name":"minimum","type":"uint256","internalType":"uint256"}]},{"type":"error","name":"CooldownNotElapsed","inputs":[{"name":"user_hash","type":"bytes32","internalType":"bytes32"},{"name":"available_at","type":"uint32","internalType":"uint32"}]},{"type":"error","name":"ERC1967InvalidImplementation","inputs":[{"name":"implementation","type":"address","internalType":"address"}]},{"type":"error","name":"ERC1967NonPayable","inputs":[]},{"type":"error","name":"EnforcedPause","inputs":[]},{"type":"error","name":"ExpectedPause","inputs":[]},{"type":"error","name":"FailedCall","inputs":[]},{"type":"error","name":"InsufficientCredits","inputs":[{"name":"user_hash","type":"bytes32","internalType":"bytes32"},{"name":"balance","type":"uint256","internalType":"uint256"},{"name":"required","type":"uint256","internalType":"uint256"}]},{"type":"error","name":"InvalidConversionRate","inputs":[]},{"type":"error","name":"InvalidInitialization","inputs":[]},{"type":"error","name":"InvalidUserHash","inputs":[]},{"type":"error","name":"InvalidWalletAddress","inputs":[]},{"type":"error","name":"NoMainnetWallet","inputs":[{"name":"user_hash","type":"bytes32","internalType":"bytes32"}]},{"type":"error","name":"NotInitializing","inputs":[]},{"type":"error","name":"OwnableInvalidOwner","inputs":[{"name":"owner","type":"address","internalType":"address"}]},{"type":"error","name":"OwnableUnauthorizedAccount","inputs":[{"name":"account","type":"address","internalType":"address"}]},{"type":"error","name":"ReentrancyGuardReentrantCall","inputs":[]},{"type":"error","name":"UUPSUnauthorizedCallContext","inputs":[]},{"type":"error","name":"UUPSUnsupportedProxiableUUID","inputs":[{"name":"slot","type":"bytes32","internalType":"bytes32"}]},{"type":"error","name":"ZeroIfrAmount","inputs":[]}],"bytecode":{"object":"0x60a060405230608052348015610013575f80fd5b5060017f9b779b17422d0df92223018b32b4d1fa46e071723d6817e2486d003becc55f0055610040610045565b6100f7565b7ff0c57e16840df040f15088dc2f81fe391c3923bec73e23a9662efc9c229c6a00805468010000000000000000900460ff16156100955760405163f92ee8a960e01b815260040160405180910390fd5b80546001600160401b03908116146100f45780546001600160401b0319166001600160401b0390811782556040519081527fc7f505b2f371ae2175ee4913f4499e1f2633a7b5936321eed1cdaeb6115181d29060200160405180910390a15b50565b60805161199161011d5f395f81816110420152818161106b01526111af01526119915ff3fe6080604052600436106101af575f3560e01c8063715018a6116100e7578063c49716cc11610087578063dfa0dfa511610062578063dfa0dfa51461052a578063eaaa98fa14610549578063efd5c49f14610576578063f2fde38b146105a1575f80fd5b8063c49716cc146104d7578063cc2056cb146104ec578063d2e804941461050b575f80fd5b8063896a6715116100c2578063896a6715146103ed5780638da5cb5b1461043f578063ad3cb1cc1461047b578063ae648e90146104b8575f80fd5b8063715018a614610394578063821bff95146103a85780638456cb59146103d9575f80fd5b806341fdfa50116101525780634fc871201161012d5780634fc871201461030857806352d1902d146103335780635c975abb1461034757806363f4496814610375575f80fd5b806341fdfa50146102ac5780634f1ef286146102e05780634f33d822146102f3575f80fd5b8063220cce971161018d578063220cce9714610211578063264740ca1461024757806337c909ec1461026d5780633f4ba83a14610298575f80fd5b80630da7e9ef146101b35780631794bb3c146101db5780632190d273146101fc575b5f80fd5b3480156101be575f80fd5b506101c860015481565b6040519081526020015b60405180910390f35b3480156101e6575f80fd5b506101fa6101f5366004611583565b6105c0565b005b348015610207575f80fd5b506101c86103e881565b34801561021c575f80fd5b505f5461022f906001600160a01b031681565b6040516001600160a01b0390911681526020016101d2565b348015610252575f80fd5b5061025b600981565b60405160ff90911681526020016101d2565b348015610278575f80fd5b5061028362093a8081565b60405163ffffffff90911681526020016101d2565b3480156102a3575f80fd5b506101fa6106e2565b3480156102b7575f80fd5b5061022f6102c63660046115bc565b60066020525f90815260409020546001600160a01b031681565b6101fa6102ee3660046115e7565b6106f4565b3480156102fe575f80fd5b506101c860035481565b348015610313575f80fd5b506101c86103223660046115bc565b60076020525f908152604090205481565b34801561033e575f80fd5b506101c8610713565b348015610352575f80fd5b505f8051602061193c8339815191525460ff1660405190151581526020016101d2565b348015610380575f80fd5b506101fa61038f3660046116a3565b61072e565b34801561039f575f80fd5b506101fa610a86565b3480156103b3575f80fd5b506102836103c23660046115bc565b60046020525f908152604090205463ffffffff1681565b3480156103e4575f80fd5b506101fa610a97565b3480156103f8575f80fd5b5061040c6104073660046115bc565b610aa7565b60408051958652602086019490945263ffffffff909216928401929092529015156060830152608082015260a0016101d2565b34801561044a575f80fd5b507f9016d09d72d40fdae2fd8ceac6b6234c7706214fd39c1cd1e609a0528c199300546001600160a01b031661022f565b348015610486575f80fd5b506104ab604051806040016040528060058152602001640352e302e360dc1b81525081565b6040516101d29190611706565b3480156104c3575f80fd5b506101c86104d23660046115bc565b610bd6565b3480156104e2575f80fd5b506101c860025481565b3480156104f7575f80fd5b506101fa61050636600461171f565b610c10565b348015610516575f80fd5b506101fa6105253660046115bc565b610cb5565b348015610535575f80fd5b506101fa610544366004611749565b610d2e565b348015610554575f80fd5b506105686105633660046115bc565b610d57565b6040516101d2929190611762565b348015610581575f80fd5b506101c86105903660046115bc565b60056020525f908152604090205481565b3480156105ac575f80fd5b506101fa6105bb366004611749565b610eff565b5f6105c9610f3c565b805490915060ff600160401b820416159067ffffffffffffffff165f811580156105f05750825b90505f8267ffffffffffffffff16600114801561060c5750303b155b90508115801561061a575080155b156106385760405163f92ee8a960e01b815260040160405180910390fd5b845467ffffffffffffffff19166001178555831561066257845460ff60401b1916600160401b1785555b61066b88610f64565b610673610f75565b5f80546001600160a01b0319166001600160a01b038916179055600186905583156106d857845460ff60401b19168555604051600181527fc7f505b2f371ae2175ee4913f4499e1f2633a7b5936321eed1cdaeb6115181d29060200160405180910390a15b5050505050505050565b6106ea610f7d565b6106f2610fd8565b565b6106fc611037565b610705826110db565b61070f82826110e3565b5050565b5f61071c6111a4565b505f8051602061191c83398151915290565b6107366111ed565b61073e61121d565b8161075c5760405163c1fbe84760e01b815260040160405180910390fd5b6103e881101561078f57604051631cc6243f60e01b8152600481018290526103e860248201526044015b60405180910390fd5b5f828152600660205260409020546001600160a01b0316806107c757604051638019cb8f60e01b815260048101849052602401610786565b5f8381526004602052604090205463ffffffff16801561082f575f6107ef62093a8083611798565b90508063ffffffff164263ffffffff16101561082d5760405163760927d560e11b81526004810186905263ffffffff82166024820152604401610786565b505b5f8054604051631cba532960e11b8152600481018790526001600160a01b0390911690633974a65290602401602060405180830381865afa158015610876573d5f803e3d5ffd5b505050506040513d601f19601f8201168201806040525081019061089a91906117b5565b9050838110156108ce5760405163ef5e510360e01b8152600481018690526024810182905260448101859052606401610786565b6001545f906108df6009600a6118ac565b6108e990876118ba565b6108f391906118d1565b9050805f03610915576040516304d937d960e11b815260040160405180910390fd5b5f868152600460209081526040808320805463ffffffff19164263ffffffff1617905560059091528120805487929061094f9084906118f0565b925050819055508060025f82825461096791906118f0565b909155505060038054905f61097b83611903565b90915550505f8681526007602052604081208054908261099a83611903565b909155505f54604051630e70fc1b60e01b8152600481018a9052602481018990529192506001600160a01b031690630e70fc1b906044015f604051808303815f87803b1580156109e8575f80fd5b505af11580156109fa573d5f803e3d5ffd5b5050604080518981526020810186905290810184905263ffffffff421660608201526001600160a01b03881692508991507f0417535d02932696c80112c51ba445bc1d8e9bda07c31d2517c331a8056e1d049060800160405180910390a3505050505061070f60017f9b779b17422d0df92223018b32b4d1fa46e071723d6817e2486d003becc55f0055565b610a8e610f7d565b6106f25f61124b565b610a9f610f7d565b6106f26112bb565b5f8054604051631cba532960e11b81526004810184905282918291829182916001600160a01b0390911690633974a65290602401602060405180830381865afa158015610af6573d5f803e3d5ffd5b505050506040513d601f19601f82011682018060405250810190610b1a91906117b5565b604051630ae648e960e41b815260048101829052909550309063ae648e9090602401602060405180830381865afa158015610b57573d5f803e3d5ffd5b505050506040513d601f19601f82011682018060405250810190610b7b91906117b5565b5f87815260046020526040902054909450610ba09062093a809063ffffffff16611798565b5f968752600660209081526040808920546005909252909720549597949690956001600160a01b03909116151594909350915050565b5f6001545f03610be757505f919050565b600154610bf66009600a6118ac565b610c0090846118ba565b610c0a91906118d1565b92915050565b610c186111ed565b81610c365760405163c1fbe84760e01b815260040160405180910390fd5b6001600160a01b038116610c5d5760405163a5f90a1160e01b815260040160405180910390fd5b5f8281526006602052604080822080546001600160a01b0319166001600160a01b0385169081179091559051909184917fb4e574799283b23d155035e9002f0a86fea799b7c5bfe0b5dc6288345d0fc1109190a35050565b610cbd610f7d565b805f03610cdd57604051636e04927d60e11b815260040160405180910390fd5b600180549082905560408051828152602081018490524263ffffffff168183015290517fb21407128ae7df856084696642cd209d19bac05c2947aa6c28bae811106ab1a79181900360600190a15050565b610d36610f7d565b5f80546001600160a01b0319166001600160a01b0392909216919091179055565b5f818152600660205260408120546060906001600160a01b0316610da9575050604080518082019091526014815273139bc81dd85b1b195d081c9959da5cdd195c995960621b60208201525f92909150565b5f8054604051631cba532960e11b8152600481018690526001600160a01b0390911690633974a65290602401602060405180830381865afa158015610df0573d5f803e3d5ffd5b505050506040513d601f19601f82011682018060405250810190610e1491906117b5565b90506103e8811015610e58575f60405180604001604052806014815260200173496e73756666696369656e74206372656469747360601b8152509250925050915091565b5f8481526004602052604090205463ffffffff168015801590610e925750610e8362093a8082611798565b63ffffffff164263ffffffff16105b15610ecb575f6040518060400160405280600f81526020016e436f6f6c646f776e2061637469766560881b815250935093505050915091565b60016040518060400160405280600e81526020016d526561647920746f20636c61696d60901b815250935093505050915091565b610f07610f7d565b6001600160a01b038116610f3057604051631e4fbdf760e01b81525f6004820152602401610786565b610f398161124b565b50565b5f807ff0c57e16840df040f15088dc2f81fe391c3923bec73e23a9662efc9c229c6a00610c0a565b610f6c611303565b610f3981611328565b6106f2611303565b33610faf7f9016d09d72d40fdae2fd8ceac6b6234c7706214fd39c1cd1e609a0528c199300546001600160a01b031690565b6001600160a01b0316146106f25760405163118cdaa760e01b8152336004820152602401610786565b610fe0611330565b5f8051602061193c833981519152805460ff191681557f5db9ee0a495bf2e6ff9c91a7834c1ba4fdd244a5e8aa4e537bd38aeae4b073aa335b6040516001600160a01b03909116815260200160405180910390a150565b306001600160a01b037f00000000000000000000000000000000000000000000000000000000000000001614806110bd57507f00000000000000000000000000000000000000000000000000000000000000006001600160a01b03166110b15f8051602061191c833981519152546001600160a01b031690565b6001600160a01b031614155b156106f25760405163703e46dd60e11b815260040160405180910390fd5b610f39610f7d565b816001600160a01b03166352d1902d6040518163ffffffff1660e01b8152600401602060405180830381865afa92505050801561113d575060408051601f3d908101601f1916820190925261113a918101906117b5565b60015b61116557604051634c9c8ce360e01b81526001600160a01b0383166004820152602401610786565b5f8051602061191c833981519152811461119557604051632a87526960e21b815260048101829052602401610786565b61119f838361135f565b505050565b306001600160a01b037f000000000000000000000000000000000000000000000000000000000000000016146106f25760405163703e46dd60e11b815260040160405180910390fd5b5f8051602061193c8339815191525460ff16156106f25760405163d93c066560e01b815260040160405180910390fd5b6112256113b4565b60027f9b779b17422d0df92223018b32b4d1fa46e071723d6817e2486d003becc55f0055565b7f9016d09d72d40fdae2fd8ceac6b6234c7706214fd39c1cd1e609a0528c19930080546001600160a01b031981166001600160a01b03848116918217845560405192169182907f8be0079c531659141344cd1fd0a4f28419497f9722a3daafe3b4186f6b6457e0905f90a3505050565b6112c36111ed565b5f8051602061193c833981519152805460ff191660011781557f62e78cea01bee320cd4e420270b5ea74000d11b0c9f74754ebdbfc544b05a25833611019565b61130b6113f6565b6106f257604051631afcd79f60e31b815260040160405180910390fd5b610f07611303565b5f8051602061193c8339815191525460ff166106f257604051638dfc202b60e01b815260040160405180910390fd5b6113688261140f565b6040516001600160a01b038316907fbc7cd75a20ee27fd9adebab32041f755214dbc6bffa90cc0225b39da2e5c2d3b905f90a28051156113ac5761119f8282611472565b61070f611512565b7f9b779b17422d0df92223018b32b4d1fa46e071723d6817e2486d003becc55f00546002036106f257604051633ee5aeb560e01b815260040160405180910390fd5b5f6113ff610f3c565b54600160401b900460ff16919050565b806001600160a01b03163b5f0361144457604051634c9c8ce360e01b81526001600160a01b0382166004820152602401610786565b5f8051602061191c83398151915280546001600160a01b0319166001600160a01b0392909216919091179055565b60605f61147f8484611531565b90508080156114a057505f3d11806114a057505f846001600160a01b03163b115b156114b5576114ad611544565b915050610c0a565b80156114df57604051639996b31560e01b81526001600160a01b0385166004820152602401610786565b3d156114f2576114ed61155d565b61150b565b60405163d6bda27560e01b815260040160405180910390fd5b5092915050565b34156106f25760405163b398979f60e01b815260040160405180910390fd5b5f805f835160208501865af49392505050565b6040513d81523d5f602083013e3d602001810160405290565b6040513d5f823e3d81fd5b80356001600160a01b038116811461157e575f80fd5b919050565b5f805f60608486031215611595575f80fd5b61159e84611568565b92506115ac60208501611568565b9150604084013590509250925092565b5f602082840312156115cc575f80fd5b5035919050565b634e487b7160e01b5f52604160045260245ffd5b5f80604083850312156115f8575f80fd5b61160183611568565b9150602083013567ffffffffffffffff8082111561161d575f80fd5b818501915085601f830112611630575f80fd5b813581811115611642576116426115d3565b604051601f8201601f19908116603f0116810190838211818310171561166a5761166a6115d3565b81604052828152886020848701011115611682575f80fd5b826020860160208301375f6020848301015280955050505050509250929050565b5f80604083850312156116b4575f80fd5b50508035926020909101359150565b5f81518084525f5b818110156116e7576020818501810151868301820152016116cb565b505f602082860101526020601f19601f83011685010191505092915050565b602081525f61171860208301846116c3565b9392505050565b5f8060408385031215611730575f80fd5b8235915061174060208401611568565b90509250929050565b5f60208284031215611759575f80fd5b61171882611568565b8215158152604060208201525f61177c60408301846116c3565b949350505050565b634e487b7160e01b5f52601160045260245ffd5b63ffffffff81811683821601908082111561150b5761150b611784565b5f602082840312156117c5575f80fd5b5051919050565b600181815b8085111561180657815f19048211156117ec576117ec611784565b808516156117f957918102915b93841c93908002906117d1565b509250929050565b5f8261181c57506001610c0a565b8161182857505f610c0a565b816001811461183e576002811461184857611864565b6001915050610c0a565b60ff84111561185957611859611784565b50506001821b610c0a565b5060208310610133831016604e8410600b8410161715611887575081810a610c0a565b61189183836117cc565b805f19048211156118a4576118a4611784565b029392505050565b5f61171860ff84168361180e565b8082028115828204841417610c0a57610c0a611784565b5f826118eb57634e487b7160e01b5f52601260045260245ffd5b500490565b80820180821115610c0a57610c0a611784565b5f6001820161191457611914611784565b506001019056fe360894a13ba1a3210667c828492db98dca3e2076cc3735a920a3ca505d382bbccd5ed15c6e187e77e9aee88184c21f4f2182ab5827cb3b7e07fbedcd63f03300a2646970667358221220c90670136b10fe6a175b36020bbb1b3cb5864d51c10c75bbc7f1a8337f7565da64736f6c63430008180033","linkReferences":{}},"methodIdentifiers":{"CLAIM_COOLDOWN()":"37c909ec","IFR_DECIMALS()":"264740ca","MIN_CLAIM_CREDITS()":"2190d273","UPGRADE_INTERFACE_VERSION()":"ad3cb1cc","canClaim(bytes32)":"eaaa98fa","claim(bytes32,uint256)":"63f44968","claimNonce(bytes32)":"4fc87120","creditsPerIfrUnit()":"0da7e9ef","getClaimStatus(bytes32)":"896a6715","initialize(address,address,uint256)":"1794bb3c","lastClaimAt(bytes32)":"821bff95","mainnetWallet(bytes32)":"41fdfa50","owner()":"8da5cb5b","pause()":"8456cb59","paused()":"5c975abb","previewClaim(uint256)":"ae648e90","proxiableUUID()":"52d1902d","registerWallet(bytes32,address)":"cc2056cb","renounceOwnership()":"715018a6","rewardsContract()":"220cce97","setConversionRate(uint256)":"d2e80494","setRewardsContract(address)":"dfa0dfa5","totalClaimsCount()":"4f33d822","totalCreditsClaimed(bytes32)":"efd5c49f","totalIfrClaimed()":"c49716cc","transferOwnership(address)":"f2fde38b","unpause()":"3f4ba83a","upgradeToAndCall(address,bytes)":"4f1ef286"},"id":37}