{"abi":[{"type":"constructor","inputs":[],"stateMutability":"nonpayable"},{"type":"function","name":"BASE_REWARD","inputs":[],"outputs":[{"name":"","type":"uint64","internalType":"uint64"}],"stateMutability":"view"},{"type":"function","name":"BPS_DENOM","inputs":[],"outputs":[{"name":"","type":"uint32","internalType":"uint32"}],"stateMutability":"view"},{"type":"function","name":"FIRST_MOVER_BPS","inputs":[],"outputs":[{"name":"","type":"uint32","internalType":"uint32"}],"stateMutability":"view"},{"type":"function","name":"IFR_PREMIUM_BPS","inputs":[],"outputs":[{"name":"","type":"uint32","internalType":"uint32"}],"stateMutability":"view"},{"type":"function","name":"MIN_CLAIM","inputs":[],"outputs":[{"name":"","type":"uint64","internalType":"uint64"}],"stateMutability":"view"},{"type":"function","name":"SILENT_CONSENSUS_BPS","inputs":[],"outputs":[{"name":"","type":"uint32","internalType":"uint32"}],"stateMutability":"view"},{"type":"function","name":"TIER_BRONZE_BPS","inputs":[],"outputs":[{"name":"","type":"uint16","internalType":"uint16"}],"stateMutability":"view"},{"type":"function","name":"TIER_FREE_BPS","inputs":[],"outputs":[{"name":"","type":"uint16","internalType":"uint16"}],"stateMutability":"view"},{"type":"function","name":"TIER_GOLD_BPS","inputs":[],"outputs":[{"name":"","type":"uint16","internalType":"uint16"}],"stateMutability":"view"},{"type":"function","name":"TIER_PLATINUM_BPS","inputs":[],"outputs":[{"name":"","type":"uint16","internalType":"uint16"}],"stateMutability":"view"},{"type":"function","name":"TIER_SILVER_BPS","inputs":[],"outputs":[{"name":"","type":"uint16","internalType":"uint16"}],"stateMutability":"view"},{"type":"function","name":"UPGRADE_INTERFACE_VERSION","inputs":[],"outputs":[{"name":"","type":"string","internalType":"string"}],"stateMutability":"view"},{"type":"function","name":"authorizedClaimer","inputs":[],"outputs":[{"name":"","type":"address","internalType":"address"}],"stateMutability":"view"},{"type":"function","name":"canClaim","inputs":[{"name":"user_hash","type":"bytes32","internalType":"bytes32"}],"outputs":[{"name":"","type":"bool","internalType":"bool"}],"stateMutability":"view"},{"type":"function","name":"credits","inputs":[{"name":"","type":"bytes32","internalType":"bytes32"}],"outputs":[{"name":"","type":"uint256","internalType":"uint256"}],"stateMutability":"view"},{"type":"function","name":"deductCredits","inputs":[{"name":"user_hash","type":"bytes32","internalType":"bytes32"},{"name":"amount","type":"uint256","internalType":"uint256"}],"outputs":[],"stateMutability":"nonpayable"},{"type":"function","name":"dupCount","inputs":[{"name":"","type":"bytes32","internalType":"bytes32"}],"outputs":[{"name":"","type":"uint32","internalType":"uint32"}],"stateMutability":"view"},{"type":"function","name":"firstMoverPaid","inputs":[{"name":"","type":"bytes32","internalType":"bytes32"}],"outputs":[{"name":"","type":"bool","internalType":"bool"}],"stateMutability":"view"},{"type":"function","name":"getCredits","inputs":[{"name":"user_hash","type":"bytes32","internalType":"bytes32"}],"outputs":[{"name":"","type":"uint256","internalType":"uint256"}],"stateMutability":"view"},{"type":"function","name":"ifrPremium","inputs":[{"name":"","type":"bytes32","internalType":"bytes32"}],"outputs":[{"name":"","type":"bool","internalType":"bool"}],"stateMutability":"view"},{"type":"function","name":"initialize","inputs":[{"name":"initialOwner","type":"address","internalType":"address"},{"name":"registryAddress","type":"address","internalType":"address"},{"name":"trustAddress","type":"address","internalType":"address"}],"outputs":[],"stateMutability":"nonpayable"},{"type":"function","name":"owner","inputs":[],"outputs":[{"name":"","type":"address","internalType":"address"}],"stateMutability":"view"},{"type":"function","name":"pause","inputs":[],"outputs":[],"stateMutability":"nonpayable"},{"type":"function","name":"paused","inputs":[],"outputs":[{"name":"","type":"bool","internalType":"bool"}],"stateMutability":"view"},{"type":"function","name":"payFirstMoverBonus","inputs":[{"name":"submission_hash","type":"bytes32","internalType":"bytes32"}],"outputs":[],"stateMutability":"nonpayable"},{"type":"function","name":"paySilentConsensusReward","inputs":[{"name":"submission_hash","type":"bytes32","internalType":"bytes32"}],"outputs":[],"stateMutability":"nonpayable"},{"type":"function","name":"previewReward","inputs":[{"name":"user_hash","type":"bytes32","internalType":"bytes32"},{"name":"is_first_mover","type":"bool","internalType":"bool"},{"name":"dup_count_val","type":"uint32","internalType":"uint32"},{"name":"is_silent","type":"bool","internalType":"bool"}],"outputs":[{"name":"","type":"uint64","internalType":"uint64"}],"stateMutability":"view"},{"type":"function","name":"proxiableUUID","inputs":[],"outputs":[{"name":"","type":"bytes32","internalType":"bytes32"}],"stateMutability":"view"},{"type":"function","name":"registry","inputs":[],"outputs":[{"name":"","type":"address","internalType":"contract IVendRegistry"}],"stateMutability":"view"},{"type":"function","name":"renounceOwnership","inputs":[],"outputs":[],"stateMutability":"nonpayable"},{"type":"function","name":"rewardSubmission","inputs":[{"name":"submission_hash","type":"bytes32","internalType":"bytes32"},{"name":"dup_count_at_time","type":"uint32","internalType":"uint32"}],"outputs":[],"stateMutability":"nonpayable"},{"type":"function","name":"setAuthorizedClaimer","inputs":[{"name":"claimer","type":"address","internalType":"address"}],"outputs":[],"stateMutability":"nonpayable"},{"type":"function","name":"setIfrPremium","inputs":[{"name":"user_hash","type":"bytes32","internalType":"bytes32"},{"name":"premium","type":"bool","internalType":"bool"}],"outputs":[],"stateMutability":"nonpayable"},{"type":"function","name":"setRegistry","inputs":[{"name":"r","type":"address","internalType":"address"}],"outputs":[],"stateMutability":"nonpayable"},{"type":"function","name":"setTier","inputs":[{"name":"user_hash","type":"bytes32","internalType":"bytes32"},{"name":"tier","type":"uint8","internalType":"uint8"}],"outputs":[],"stateMutability":"nonpayable"},{"type":"function","name":"setTrustContract","inputs":[{"name":"t","type":"address","internalType":"address"}],"outputs":[],"stateMutability":"nonpayable"},{"type":"function","name":"silentConsensusPaid","inputs":[{"name":"","type":"bytes32","internalType":"bytes32"}],"outputs":[{"name":"","type":"bool","internalType":"bool"}],"stateMutability":"view"},{"type":"function","name":"tierLevel","inputs":[{"name":"","type":"bytes32","internalType":"bytes32"}],"outputs":[{"name":"","type":"uint8","internalType":"uint8"}],"stateMutability":"view"},{"type":"function","name":"totalCreditsEarned","inputs":[],"outputs":[{"name":"","type":"uint256","internalType":"uint256"}],"stateMutability":"view"},{"type":"function","name":"transferOwnership","inputs":[{"name":"newOwner","type":"address","internalType":"address"}],"outputs":[],"stateMutability":"nonpayable"},{"type":"function","name":"trustContract","inputs":[],"outputs":[{"name":"","type":"address","internalType":"contract IVendTrust"}],"stateMutability":"view"},{"type":"function","name":"unpause","inputs":[],"outputs":[],"stateMutability":"nonpayable"},{"type":"function","name":"upgradeToAndCall","inputs":[{"name":"newImplementation","type":"address","internalType":"address"},{"name":"data","type":"bytes","internalType":"bytes"}],"outputs":[],"stateMutability":"payable"},{"type":"event","name":"CreditsUpdated","inputs":[{"name":"user_hash","type":"bytes32","indexed":true,"internalType":"bytes32"},{"name":"old_balance","type":"uint256","indexed":false,"internalType":"uint256"},{"name":"new_balance","type":"uint256","indexed":false,"internalType":"uint256"}],"anonymous":false},{"type":"event","name":"FirstMoverBonusPaid","inputs":[{"name":"submission_hash","type":"bytes32","indexed":true,"internalType":"bytes32"},{"name":"user_hash","type":"bytes32","indexed":true,"internalType":"bytes32"},{"name":"bonus_credits","type":"uint64","indexed":false,"internalType":"uint64"}],"anonymous":false},{"type":"event","name":"Initialized","inputs":[{"name":"version","type":"uint64","indexed":false,"internalType":"uint64"}],"anonymous":false},{"type":"event","name":"OwnershipTransferred","inputs":[{"name":"previousOwner","type":"address","indexed":true,"internalType":"address"},{"name":"newOwner","type":"address","indexed":true,"internalType":"address"}],"anonymous":false},{"type":"event","name":"Paused","inputs":[{"name":"account","type":"address","indexed":false,"internalType":"address"}],"anonymous":false},{"type":"event","name":"RewardEarned","inputs":[{"name":"user_hash","type":"bytes32","indexed":true,"internalType":"bytes32"},{"name":"submission_hash","type":"bytes32","indexed":true,"internalType":"bytes32"},{"name":"base_reward","type":"uint64","indexed":false,"internalType":"uint64"},{"name":"final_reward","type":"uint64","indexed":false,"internalType":"uint64"},{"name":"reward_type","type":"string","indexed":false,"internalType":"string"}],"anonymous":false},{"type":"event","name":"SilentConsensusPaid","inputs":[{"name":"submission_hash","type":"bytes32","indexed":true,"internalType":"bytes32"},{"name":"user_hash","type":"bytes32","indexed":true,"internalType":"bytes32"},{"name":"credits_paid","type":"uint64","indexed":false,"internalType":"uint64"}],"anonymous":false},{"type":"event","name":"TierUpdated","inputs":[{"name":"user_hash","type":"bytes32","indexed":true,"internalType":"bytes32"},{"name":"tier","type":"uint8","indexed":false,"internalType":"uint8"}],"anonymous":false},{"type":"event","name":"Unpaused","inputs":[{"name":"account","type":"address","indexed":false,"internalType":"address"}],"anonymous":false},{"type":"event","name":"Upgraded","inputs":[{"name":"implementation","type":"address","indexed":true,"internalType":"address"}],"anonymous":false},{"type":"error","name":"AddressEmptyCode","inputs":[{"name":"target","type":"address","internalType":"address"}]},{"type":"error","name":"AlreadyPaid","inputs":[{"name":"submission_hash","type":"bytes32","internalType":"bytes32"},{"name":"reward_type","type":"string","internalType":"string"}]},{"type":"error","name":"ERC1967InvalidImplementation","inputs":[{"name":"implementation","type":"address","internalType":"address"}]},{"type":"error","name":"ERC1967NonPayable","inputs":[]},{"type":"error","name":"EnforcedPause","inputs":[]},{"type":"error","name":"ExpectedPause","inputs":[]},{"type":"error","name":"FailedCall","inputs":[]},{"type":"error","name":"InsufficientCredits","inputs":[{"name":"user_hash","type":"bytes32","internalType":"bytes32"},{"name":"balance","type":"uint256","internalType":"uint256"},{"name":"required","type":"uint256","internalType":"uint256"}]},{"type":"error","name":"InvalidInitialization","inputs":[]},{"type":"error","name":"InvalidSubmissionHash","inputs":[]},{"type":"error","name":"InvalidUserHash","inputs":[]},{"type":"error","name":"NotInitializing","inputs":[]},{"type":"error","name":"OwnableInvalidOwner","inputs":[{"name":"owner","type":"address","internalType":"address"}]},{"type":"error","name":"OwnableUnauthorizedAccount","inputs":[{"name":"account","type":"address","internalType":"address"}]},{"type":"error","name":"ReentrancyGuardReentrantCall","inputs":[]},{"type":"error","name":"SubmissionNotFound","inputs":[{"name":"hash","type":"bytes32","internalType":"bytes32"}]},{"type":"error","name":"UUPSUnauthorizedCallContext","inputs":[]},{"type":"error","name":"UUPSUnsupportedProxiableUUID","inputs":[{"name":"slot","type":"bytes32","internalType":"bytes32"}]},{"type":"error","name":"ZeroReward","inputs":[]}],"bytecode":{"object":"0x60a06040523060805234801562000014575f80fd5b5060017f9b779b17422d0df92223018b32b4d1fa46e071723d6817e2486d003becc55f00556200004362000049565b620000fd565b7ff0c57e16840df040f15088dc2f81fe391c3923bec73e23a9662efc9c229c6a00805468010000000000000000900460ff16156200009a5760405163f92ee8a960e01b815260040160405180910390fd5b80546001600160401b0390811614620000fa5780546001600160401b0319166001600160401b0390811782556040519081527fc7f505b2f371ae2175ee4913f4499e1f2633a7b5936321eed1cdaeb6115181d29060200160405180910390a15b50565b6080516125d9620001245f395f81816118d9015281816119020152611a4601526125d95ff3fe608060405260043610610254575f3560e01c80637b1039991161013f578063b44e562f116100b3578063eee365ca11610078578063eee365ca14610743578063f2fde38b14610762578063f4e7632d14610781578063f8823ce214610796578063fbf37935146107c4578063fc99d304146107e3575f80fd5b8063b44e562f146106a1578063c0c53b8b146106c0578063cd94880c146106df578063d4459a12146106f4578063eaaa98fa14610713575f80fd5b806395a853d41161010457806395a853d4146105b357806397a4f058146105d25780639d506fa5146105f1578063a13c263a14610605578063a91ee0dc14610645578063ad3cb1cc14610664575f80fd5b80637b1039991461052057806382428dee146105575780638456cb591461056c578063857f6bcf146105805780638da5cb5b1461059f575f80fd5b80633f6ad33f116101d657806352d1902d1161019b57806352d1902d146104735780635422704c146104875780635a269c1c146104b55780635c975abb146104d45780636637e38c146104f7578063715018a61461050c575f80fd5b80633f6ad33f146103b15780634229686b146103d057806342997913146104165780634f1ef286146104415780634fa82a3514610454575f80fd5b80631cd2a05d1161021c5780631cd2a05d1461031c57806322009af614610349578063334efd9d1461035d5780633974a652146103725780633f4ba83a1461039d575f80fd5b80630af43c61146102585780630e70fc1b1461028057806314a64e0e146102a157806316a44575146102c95780631aa7652d146102de575b5f80fd5b348015610263575f80fd5b5061026d60015481565b6040519081526020015b60405180910390f35b34801561028b575f80fd5b5061029f61029a366004611eb6565b6107f8565b005b3480156102ac575f80fd5b506102b66107d081565b60405161ffff9091168152602001610277565b3480156102d4575f80fd5b506102b66101f481565b3480156102e9575f80fd5b5061030c6102f8366004611ed6565b60036020525f908152604090205460ff1681565b6040519015158152602001610277565b348015610327575f80fd5b506103316103e881565b6040516001600160401b039091168152602001610277565b348015610354575f80fd5b50610331606481565b348015610368575f80fd5b506102b66104e281565b34801561037d575f80fd5b5061026d61038c366004611ed6565b5f9081526020819052604090205490565b3480156103a8575f80fd5b5061029f6109b9565b3480156103bc575f80fd5b5061029f6103cb366004611ed6565b6109cb565b3480156103db575f80fd5b506104016103ea366004611ed6565b60046020525f908152604090205463ffffffff1681565b60405163ffffffff9091168152602001610277565b348015610421575f80fd5b5061026d610430366004611ed6565b5f6020819052908152604090205481565b61029f61044f366004611f9b565b610d3b565b34801561045f575f80fd5b5061029f61046e366004612033565b610d56565b34801561047e575f80fd5b5061026d610df8565b348015610492575f80fd5b5061030c6104a1366004611ed6565b60026020525f908152604090205460ff1681565b3480156104c0575f80fd5b5061029f6104cf36600461206e565b610e13565b3480156104df575f80fd5b505f805160206125648339815191525460ff1661030c565b348015610502575f80fd5b506104016103e881565b348015610517575f80fd5b5061029f610e3a565b34801561052b575f80fd5b5060075461053f906001600160a01b031681565b6040516001600160a01b039091168152602001610277565b348015610562575f80fd5b506102b66105dc81565b348015610577575f80fd5b5061029f610e4b565b34801561058b575f80fd5b5061029f61059a366004611ed6565b610e5b565b3480156105aa575f80fd5b5061053f6110cc565b3480156105be575f80fd5b5060085461053f906001600160a01b031681565b3480156105dd575f80fd5b5061029f6105ec366004612091565b6110fa565b3480156105fc575f80fd5b5061040160c881565b348015610610575f80fd5b5061063361061f366004611ed6565b60066020525f908152604090205460ff1681565b60405160ff9091168152602001610277565b348015610650575f80fd5b5061029f61065f366004612091565b611124565b34801561066f575f80fd5b50610694604051806040016040528060058152602001640352e302e360dc1b81525081565b60405161027791906120d3565b3480156106ac575f80fd5b506103316106bb366004612116565b61114e565b3480156106cb575f80fd5b5061029f6106da366004612166565b6112cc565b3480156106ea575f80fd5b506104016107d081565b3480156106ff575f80fd5b5060095461053f906001600160a01b031681565b34801561071e575f80fd5b5061030c61072d366004611ed6565b5f908152602081905260409020546103e8111590565b34801561074e575f80fd5b5061029f61075d366004612091565b6113fd565b34801561076d575f80fd5b5061029f61077c366004612091565b611427565b34801561078c575f80fd5b506102b66103e881565b3480156107a1575f80fd5b5061030c6107b0366004611ed6565b60056020525f908152604090205460ff1681565b3480156107cf575f80fd5b5061029f6107de3660046121a6565b611461565b3480156107ee575f80fd5b506104016102bc81565b610800611666565b610808611696565b6009546001600160a01b031633148061083957506108246110cc565b6001600160a01b0316336001600160a01b0316145b6108835760405162461bcd60e51b81526020600482015260166024820152752737ba1030baba3437b934bd32b21031b630b4b6b2b960511b60448201526064015b60405180910390fd5b816108a15760405163c1fbe84760e01b815260040160405180910390fd5b6103e88110156108e6575f828152602081905260409081902054905163ef5e510360e01b81526004810184905260248101919091526103e8604482015260640161087a565b5f82815260208190526040902054811115610935575f828152602081905260409081902054905163ef5e510360e01b81526004810184905260248101919091526044810182905260640161087a565b5f8281526020819052604090205461094d82826121dd565b5f84815260208190526040908190208290555184917f31beb451d6d5a218bb56e80552682f21f6aa62884db3fa524f456f771b98f93b9161099691858252602082015260400190565b60405180910390a2506109b560015f8051602061258483398151915255565b5050565b6109c16116b1565b6109c96116e3565b565b6109d3611666565b6109db611696565b5f8181526003602052604090205460ff1615610a3657806040516304ed16ed60e21b815260040161087a9181526040602082018190526010908201526f73696c656e745f636f6e73656e73757360801b606082015260800190565b600754604051631d5b74e960e21b8152600481018390525f916001600160a01b03169063756dd3a4906024015f60405180830381865afa158015610a7c573d5f803e3d5ffd5b505050506040513d5f823e601f3d908101601f19168201604052610aa39190810190612299565b90508060e0015163ffffffff165f03610ad257604051630932f88760e11b81526004810183905260240161087a565b80610120015160ff16600114610b1e5760405162461bcd60e51b8152602060048201526011602482015270139bdd08185d5d1bd7dd995c9a599a5959607a1b604482015260640161087a565b60c08101515f83815260036020526040808220805460ff191660011790556008549051630fa7441d60e41b81526004810184905282916001600160a01b03169063fa7441d0906024016040805180830381865afa158015610b81573d5f803e3d5ffd5b505050506040513d601f19601f82011682018060405250810190610ba591906123d0565b915091505f60045f610bc3875f015188606001518960800151611742565b815260208101919091526040015f9081205463ffffffff169150819003610be8575060015b5f610bf2856117c4565b90505f63ffffffff83166103e8610c0981876123f2565b610c1391906123f2565b610c1d91906123f2565b61ffff83166102bc610c308860646123f2565b610c3a91906123f2565b610c4491906123f2565b610c4e919061241d565b9050806001600160401b03165f03610c6c5750505050505050610d22565b610c768682611831565b6040516001600160401b0382168152869089907f3a1b8814758627ecdce5fa7171e0310a7fa2fde64e10bbf83e14b079595ac4d59060200160405180910390a360408051606481526001600160401b03831660208201526060818301819052600690820152651cda5b195b9d60d21b60808201529051899188917fae1194def6b44f188aeb2fb35d51e6164e24b18655a44b2ab912ccd4249d02e79181900360a00190a3505050505050505b610d3860015f8051602061258483398151915255565b50565b610d436118ce565b610d4c82611972565b6109b5828261197a565b610d5e6116b1565b60048160ff161115610da15760405162461bcd60e51b815260206004820152600c60248201526b24b73b30b634b2103a34b2b960a11b604482015260640161087a565b5f82815260066020908152604091829020805460ff191660ff8516908117909155915191825283917fcbe07ead59155e14fa37b655023ea62d60984a0593db8294b21e11ff3ec3cd1a910160405180910390a25050565b5f610e01611a3b565b505f8051602061254483398151915290565b610e1b6116b1565b5f91825260056020526040909120805460ff1916911515919091179055565b610e426116b1565b6109c95f611a84565b610e536116b1565b6109c9611af4565b610e63611666565b610e6b611696565b5f8181526002602052604090205460ff1615610e9c57806040516304ed16ed60e21b815260040161087a9190612430565b600754604051631d5b74e960e21b8152600481018390525f916001600160a01b03169063756dd3a4906024015f60405180830381865afa158015610ee2573d5f803e3d5ffd5b505050506040513d5f823e601f3d908101601f19168201604052610f099190810190612299565b90508060e0015163ffffffff165f03610f3857604051630932f88760e11b81526004810183905260240161087a565b806101000151610f485750610d22565b60c08101515f83815260026020526040808220805460ff191660011790556008549051630fa7441d60e41b81526004810184905282916001600160a01b03169063fa7441d0906024016040805180830381865afa158015610fab573d5f803e3d5ffd5b505050506040513d601f19601f82011682018060405250810190610fcf91906123d0565b915091505f610fdd846117c4565b90505f6103e8610fed81856123f2565b610ff791906123f2565b61ffff83166107d061100a8760646123f2565b61101491906123f2565b61101e91906123f2565b611028919061241d565b90506110348582611831565b6040516001600160401b0382168152859088907f1a9ebe1f7057e3d4e221cd7f04b9298bbbad86e9c8718d2a35f4112cea33476c9060200160405180910390a386857fae1194def6b44f188aeb2fb35d51e6164e24b18655a44b2ab912ccd4249d02e76064846040516110a8929190612460565b60405180910390a3505050505050610d3860015f8051602061258483398151915255565b7f9016d09d72d40fdae2fd8ceac6b6234c7706214fd39c1cd1e609a0528c199300546001600160a01b031690565b6111026116b1565b600980546001600160a01b0319166001600160a01b0392909216919091179055565b61112c6116b1565b600780546001600160a01b0319166001600160a01b0392909216919091179055565b600854604051630fa7441d60e41b8152600481018690525f91829182916001600160a01b03169063fa7441d0906024016040805180830381865afa158015611198573d5f803e3d5ffd5b505050506040513d601f19601f820116820180604052508101906111bc91906123d0565b915091505f8563ffffffff165f146111d457856111d7565b60015b90505f6111e3896117c4565b90505f866111f3576103e86111f7565b6102bc5b90505f63ffffffff84166103e861120e81886123f2565b61121891906123f2565b61122291906123f2565b61ffff841663ffffffff84166112398960646123f2565b61124391906123f2565b61124d91906123f2565b611257919061241d565b9050898015611264575087155b156112be576103e861127681876123f2565b61128091906123f2565b61ffff84166107d06112938960646123f2565b61129d91906123f2565b6112a791906123f2565b6112b1919061241d565b6112bb90826124a1565b90505b9a9950505050505050505050565b5f6112d5611b3c565b805490915060ff600160401b82041615906001600160401b03165f811580156112fb5750825b90505f826001600160401b031660011480156113165750303b155b905081158015611324575080155b156113425760405163f92ee8a960e01b815260040160405180910390fd5b845467ffffffffffffffff19166001178555831561136c57845460ff60401b1916600160401b1785555b61137588611b66565b61137d611b77565b600780546001600160a01b03808a166001600160a01b031992831617909255600880549289169290911691909117905583156113f357845460ff60401b19168555604051600181527fc7f505b2f371ae2175ee4913f4499e1f2633a7b5936321eed1cdaeb6115181d29060200160405180910390a15b5050505050505050565b6114056116b1565b600880546001600160a01b0319166001600160a01b0392909216919091179055565b61142f6116b1565b6001600160a01b03811661145857604051631e4fbdf760e01b81525f600482015260240161087a565b610d3881611a84565b611469611666565b611471611696565b8161148f576040516309817d1b60e11b815260040160405180910390fd5b600754604051631d5b74e960e21b8152600481018490525f916001600160a01b03169063756dd3a4906024015f60405180830381865afa1580156114d5573d5f803e3d5ffd5b505050506040513d5f823e601f3d908101601f191682016040526114fc9190810190612299565b90508060e0015163ffffffff165f0361152b57604051630932f88760e11b81526004810184905260240161087a565b60c08101518061154e5760405163c1fbe84760e01b815260040160405180910390fd5b5f611565835f015184606001518560800151611742565b5f8181526004602052604090205490915063ffffffff90811690851611156115a8575f818152600460205260409020805463ffffffff191663ffffffff86161790555b5f6115b38386611b7f565b9050806001600160401b03165f036115de57604051632706c9e160e21b815260040160405180910390fd5b6115e88382611831565b60408051606481526001600160401b03831660208201526060818301819052600690820152651cdd589b5a5d60d21b60808201529051879185917fae1194def6b44f188aeb2fb35d51e6164e24b18655a44b2ab912ccd4249d02e79181900360a00190a3505050506109b560015f8051602061258483398151915255565b5f805160206125648339815191525460ff16156109c95760405163d93c066560e01b815260040160405180910390fd5b61169e611c64565b60025f8051602061258483398151915255565b336116ba6110cc565b6001600160a01b0316146109c95760405163118cdaa760e01b815233600482015260240161087a565b6116eb611c93565b5f80516020612564833981519152805460ff191681557f5db9ee0a495bf2e6ff9c91a7834c1ba4fdd244a5e8aa4e537bd38aeae4b073aa335b6040516001600160a01b03909116815260200160405180910390a150565b5f80620249f061175281866124c1565b61175c91906124fa565b90505f620249f061176d81866124c1565b61177791906124fa565b90508582826040516020016117a39392919092835260e091821b6020840152901b602482015260280190565b60405160208183030381529060405280519060200120925050509392505050565b5f8181526006602052604081205460ff1660048190036117e857506107d092915050565b8060ff166003036117fd57506105dc92915050565b8060ff1660020361181257506104e292915050565b8060ff1660010361182757506103e892915050565b506101f492915050565b5f828152602081905260409020546118526001600160401b03831682612519565b5f84815260208190526040812091909155600180546001600160401b038516929061187e908490612519565b90915550505f83815260208181526040918290205482518481529182015284917f31beb451d6d5a218bb56e80552682f21f6aa62884db3fa524f456f771b98f93b910160405180910390a2505050565b306001600160a01b037f000000000000000000000000000000000000000000000000000000000000000016148061195457507f00000000000000000000000000000000000000000000000000000000000000006001600160a01b03166119485f80516020612544833981519152546001600160a01b031690565b6001600160a01b031614155b156109c95760405163703e46dd60e11b815260040160405180910390fd5b610d386116b1565b816001600160a01b03166352d1902d6040518163ffffffff1660e01b8152600401602060405180830381865afa9250505080156119d4575060408051601f3d908101601f191682019092526119d19181019061252c565b60015b6119fc57604051634c9c8ce360e01b81526001600160a01b038316600482015260240161087a565b5f805160206125448339815191528114611a2c57604051632a87526960e21b81526004810182905260240161087a565b611a368383611cc2565b505050565b306001600160a01b037f000000000000000000000000000000000000000000000000000000000000000016146109c95760405163703e46dd60e11b815260040160405180910390fd5b7f9016d09d72d40fdae2fd8ceac6b6234c7706214fd39c1cd1e609a0528c19930080546001600160a01b031981166001600160a01b03848116918217845560405192169182907f8be0079c531659141344cd1fd0a4f28419497f9722a3daafe3b4186f6b6457e0905f90a3505050565b611afc611666565b5f80516020612564833981519152805460ff191660011781557f62e78cea01bee320cd4e420270b5ea74000d11b0c9f74754ebdbfc544b05a25833611724565b5f807ff0c57e16840df040f15088dc2f81fe391c3923bec73e23a9662efc9c229c6a005b92915050565b611b6e611d17565b610d3881611d3c565b6109c9611d17565b600854604051630fa7441d60e41b8152600481018490525f91829182916001600160a01b03169063fa7441d0906024016040805180830381865afa158015611bc9573d5f803e3d5ffd5b505050506040513d601f19601f82011682018060405250810190611bed91906123d0565b915091505f8463ffffffff165f14611c055784611c08565b60015b90505f611c14876117c4565b90505f63ffffffff8316611c2a6103e8866123f2565b611c3491906123f2565b61ffff8316611c448760646123f2565b611c4e91906123f2565b611c58919061241d565b98975050505050505050565b5f80516020612584833981519152546002036109c957604051633ee5aeb560e01b815260040160405180910390fd5b5f805160206125648339815191525460ff166109c957604051638dfc202b60e01b815260040160405180910390fd5b611ccb82611d44565b6040516001600160a01b038316907fbc7cd75a20ee27fd9adebab32041f755214dbc6bffa90cc0225b39da2e5c2d3b905f90a2805115611d0f57611a368282611da7565b6109b5611e47565b611d1f611e66565b6109c957604051631afcd79f60e31b815260040160405180910390fd5b61142f611d17565b806001600160a01b03163b5f03611d7957604051634c9c8ce360e01b81526001600160a01b038216600482015260240161087a565b5f8051602061254483398151915280546001600160a01b0319166001600160a01b0392909216919091179055565b60605f611db48484611e7f565b9050808015611dd557505f3d1180611dd557505f846001600160a01b03163b115b15611dea57611de2611e92565b915050611b60565b8015611e1457604051639996b31560e01b81526001600160a01b038516600482015260240161087a565b3d15611e2757611e22611eab565b611e40565b60405163d6bda27560e01b815260040160405180910390fd5b5092915050565b34156109c95760405163b398979f60e01b815260040160405180910390fd5b5f611e6f611b3c565b54600160401b900460ff16919050565b5f805f835160208501865af49392505050565b6040513d81523d5f602083013e3d602001810160405290565b6040513d5f823e3d81fd5b5f8060408385031215611ec7575f80fd5b50508035926020909101359150565b5f60208284031215611ee6575f80fd5b5035919050565b80356001600160a01b0381168114611f03575f80fd5b919050565b634e487b7160e01b5f52604160045260245ffd5b6040516101a081016001600160401b0381118282101715611f3f57611f3f611f08565b60405290565b604051601f8201601f191681016001600160401b0381118282101715611f6d57611f6d611f08565b604052919050565b5f6001600160401b03821115611f8d57611f8d611f08565b50601f01601f191660200190565b5f8060408385031215611fac575f80fd5b611fb583611eed565b915060208301356001600160401b03811115611fcf575f80fd5b8301601f81018513611fdf575f80fd5b8035611ff2611fed82611f75565b611f45565b818152866020838501011115612006575f80fd5b816020840160208301375f602083830101528093505050509250929050565b60ff81168114610d38575f80fd5b5f8060408385031215612044575f80fd5b82359150602083013561205681612025565b809150509250929050565b8015158114610d38575f80fd5b5f806040838503121561207f575f80fd5b82359150602083013561205681612061565b5f602082840312156120a1575f80fd5b6120aa82611eed565b9392505050565b5f5b838110156120cb5781810151838201526020016120b3565b50505f910152565b602081525f82518060208401526120f18160408501602087016120b1565b601f01601f19169190910160400192915050565b63ffffffff81168114610d38575f80fd5b5f805f8060808587031215612129575f80fd5b84359350602085013561213b81612061565b9250604085013561214b81612105565b9150606085013561215b81612061565b939692955090935050565b5f805f60608486031215612178575f80fd5b61218184611eed565b925061218f60208501611eed565b915061219d60408501611eed565b90509250925092565b5f80604083850312156121b7575f80fd5b82359150602083013561205681612105565b634e487b7160e01b5f52601160045260245ffd5b81810381811115611b6057611b606121c9565b80516001600160401b0381168114611f03575f80fd5b80516001600160e81b031981168114611f03575f80fd5b8051600381900b8114611f03575f80fd5b5f82601f83011261223d575f80fd5b815161224b611fed82611f75565b81815284602083860101111561225f575f80fd5b6122708260208301602087016120b1565b949350505050565b8051611f0381612105565b8051611f0381612061565b8051611f0381612025565b5f602082840312156122a9575f80fd5b81516001600160401b03808211156122bf575f80fd5b908301906101a082860312156122d3575f80fd5b6122db611f1c565b825181526122eb602084016121f0565b60208201526122fc60408401612206565b604082015261230d6060840161221d565b606082015261231e6080840161221d565b608082015260a083015182811115612334575f80fd5b6123408782860161222e565b60a08301525060c083015160c082015261235c60e08401612278565b60e08201526101009150612371828401612283565b82820152610120915061238582840161228e565b828201526101409150612399828401612278565b8282015261016091506123ad828401612278565b8282015261018091506123c1828401612278565b91810191909152949350505050565b5f80604083850312156123e1575f80fd5b505080516020909101519092909150565b8082028115828204841417611b6057611b606121c9565b634e487b7160e01b5f52601260045260245ffd5b5f8261242b5761242b612409565b500490565b818152604060208201525f6120aa60408301600b81526a3334b939ba2fb6b7bb32b960a91b602082015260400190565b6001600160401b03838116825282166020820152606060408201819052600b908201526a3334b939ba2fb6b7bb32b960a91b60808201525f60a08201612270565b6001600160401b03818116838216019080821115611e4057611e406121c9565b5f8160030b8360030b806124d7576124d7612409565b637fffffff1982145f19821416156124f1576124f16121c9565b90059392505050565b5f8260030b8260030b028060030b9150808214611e4057611e406121c9565b80820180821115611b6057611b606121c9565b5f6020828403121561253c575f80fd5b505191905056fe360894a13ba1a3210667c828492db98dca3e2076cc3735a920a3ca505d382bbccd5ed15c6e187e77e9aee88184c21f4f2182ab5827cb3b7e07fbedcd63f033009b779b17422d0df92223018b32b4d1fa46e071723d6817e2486d003becc55f00a2646970667358221220728f0da8a9b5b1b1222a86dd463df44ced032250b2100d93db2db1929436519664736f6c63430008180033","linkReferences":{}},"methodIdentifiers":{"BASE_REWARD()":"22009af6","BPS_DENOM()":"6637e38c","FIRST_MOVER_BPS()":"cd94880c","IFR_PREMIUM_BPS()":"9d506fa5","MIN_CLAIM()":"1cd2a05d","SILENT_CONSENSUS_BPS()":"fc99d304","TIER_BRONZE_BPS()":"f4e7632d","TIER_FREE_BPS()":"16a44575","TIER_GOLD_BPS()":"82428dee","TIER_PLATINUM_BPS()":"14a64e0e","TIER_SILVER_BPS()":"334efd9d","UPGRADE_INTERFACE_VERSION()":"ad3cb1cc","authorizedClaimer()":"d4459a12","canClaim(bytes32)":"eaaa98fa","credits(bytes32)":"42997913","deductCredits(bytes32,uint256)":"0e70fc1b","dupCount(bytes32)":"4229686b","firstMoverPaid(bytes32)":"5422704c","getCredits(bytes32)":"3974a652","ifrPremium(bytes32)":"f8823ce2","initialize(address,address,address)":"c0c53b8b","owner()":"8da5cb5b","pause()":"8456cb59","paused()":"5c975abb","payFirstMoverBonus(bytes32)":"857f6bcf","paySilentConsensusReward(bytes32)":"3f6ad33f","previewReward(bytes32,bool,uint32,bool)":"b44e562f","proxiableUUID()":"52d1902d","registry()":"7b103999","renounceOwnership()":"715018a6","rewardSubmission(bytes32,uint32)":"fbf37935","setAuthorizedClaimer(address)":"97a4f058","setIfrPremium(bytes32,bool)":"5a269c1c","setRegistry(address)":"a91ee0dc","setTier(bytes32,uint8)":"4fa82a35","setTrustContract(address)":"eee365ca","silentConsensusPaid(bytes32)":"1aa7652d","tierLevel(bytes32)":"a13c263a","totalCreditsEarned()":"0af43c61","transferOwnership(address)":"f2fde38b","trustContract()":"95a853d4","unpause()":"3f4ba83a","upgradeToAndCall(address,bytes)":"4f1ef286"},"id":39}